:020000040800F2
:10000000D061002059050008694A0008913E0008A7
:10001000654A00081D070008595500080000000047
:100020000000000000000000000000008D02000839
:10003000DF0A000800000000E1020008EF4B0008A2
:1000400073050008730500087305000873050008B0
:1000500073050008730500087305000873050008A0
:100060007305000873050008730500087305000890
:100070008509000873050008950900087305000844
:1000800073050008A509000873050008310700087A
:1000900021070008730500087305000873050008B0
:1000A0007305000873050008730500087305000850
:1000B0007305000873050008730500087305000840
:1000C0007305000873050008730500087305000830
:1000D000730500081D550008730500083155000818
:1000E0007305000873050008730500087305000810
:1000F0007305000873050008730500087305000800
:1001000073050008730500087305000873050008EF
:100110007305000873050008654D000873050008A5
:1001200073050008B5090008C50900087305000833
:1001300073050008730500087305000851070008DF
:1001400041070008730500087305000873050008DF
:10015000730500087305000873050008455500087D
:10016000730500087305000873050008730500088F
:1001700073050008730500087305000800000000FF
:100180007305000873050008355000084950000841
:10019000730500087305000873050008730500085F
:1001A00000000000000000007305000800F002F8E5
:1001B00000F05CF80AA090E8000C82448344AAF1A5
:1001C0000107DA4501D100F051F8AFF2090EBAE8A3
:1001D0000F0013F0010F18BFFB1A43F0010318477B
:1001E00074BD000094BD00000A444FF0000C10F8EC
:1001F000013B13F0070408BF10F8014B1D1108BFA5
:1002000010F8015B641E05D010F8016B641E01F844
:10021000016BF9D113F0080F1EBF10F8014BAD1C94
:100220000C1B09D16D1E58BF01F801CBFAD505E0B2
:1002300014F8016B01F8016B6D1EF9D59142D6D30C
:10024000704700000023002400250026103A28BF34
:1002500078C1FBD8520728BF30C148BF0B60704738
:100260001FB50BF0F4FC1FBD10B510BD00F046F932
:100270001146FFF7F5FF08F0A5F900F064F903B4A3
:10028000FFF7F2FF03BC00F08BF900002B4B19685D
:100290000868B0E8F04F80F30988BFF36F8F4FF024
:1002A000000080F3118870470000000006480068D5
:1002B000006880F3088862B661B6BFF34F8FBFF362
:1002C0006F8F00DF00BF00BF08ED00E0DFF80C001B
:1002D000016841F470010160704700BF88ED00E0E3
:1002E000EFF30980BFF36F8F144B1A681EF0100FE5
:1002F00008BF20ED108A20E9F04F106008B44FF0DD
:10030000500080F31188BFF34F8FBFF36F8F0AF057
:100310001BFB4FF0000080F3118808BC19680868C7
:10032000B0E8F04F1EF0100F08BFB0EC108A80F359
:100330000988BFF36F8F704700BF00BFC001002066
:10034000EFF305807047032A40F2308010F0030C71
:1003500000F0158011F8013BBCF1020F624498BF18
:1003600011F801CB00F8013B38BF11F8013BA2F1B5
:10037000040298BF00F801CB38BF00F8013B11F030
:10038000030300F02580083AC0F0088051F8043BD0
:10039000083A51F804CBA0E80810F5E7121D5CBF3D
:1003A00051F8043B40F8043BAFF30080D20724BF70
:1003B00011F8013B11F801CB48BF11F8012B24BF04
:1003C00000F8013B00F801CB48BF00F8012B704753
:1003D00010B5203AC0F00B80B1E81850203AA0E8E0
:1003E0001850B1E81850A0E81850BFF4F5AF5FEA14
:1003F000027C24BFB1E81850A0E8185044BF18C9C7
:1004000018C0BDE810405FEA827C24BF51F8043B6D
:1004100040F8043B08BF7047D20728BF31F8023BC1
:1004200048BF11F8012B28BF20F8023B48BF00F855
:10043000012B704702F0FF0343EA032242EA024223
:1004400000F002B84FF000020429C0F0128010F052
:10045000030C00F02680CCF1040CBCF1020F18BF95
:1004600000F8012BA8BF20F8022BA1EB0C0100F033
:1004700018B85FEAC17C24BF00F8012B00F8012BFB
:1004800048BF00F8012B704710B500F02FF8006846
:1004900010BD10B5044600F029F8046010BD4FF0FF
:1004A000000200B5134694469646203922BFA0E8C4
:1004B0000C50A0E80C50B1F12001BFF4F7AF0907D0
:1004C00028BFA0E80C5048BF0CC05DF804EB8900C1
:1004D00028BF40F8042B08BF704748BF20F8022B04
:1004E00011F0804F18BF00F8012B7047004870478B
:1004F000704C002000487047704C00207546FFF794
:10050000F9FFAE4605006946534620F007008546D0
:1005100018B020B500F02EF8BDE820404FF00006DE
:100520004FF000074FF000084FF0000B21F00701DB
:10053000AC46ACE8C009ACE8C009ACE8C009ACE81E
:10054000C0098D46704710B50446AFF300802046C1
:10055000BDE81040FFF793BE0948804709480047AF
:10056000FEE7FEE7FEE7FEE7FEE7FEE7FEE7FEE763
:10057000FEE7FEE704480549054A064B70470000C0
:10058000014D0008AD010008D04C0020D0610020D2
:10059000D0510020D05100207047704770470000B4
:1005A00001491820ABBEFEE726000200704700009C
:1005B00010B558494A6822F440324A604A68436894
:1005C0001A434A600268526822F4807203685A60D3
:1005D00002685368026943EA022203685A600268AB
:1005E000526822F0407203685A6002685268836859
:1005F0001A4303685A600268926822F40062036832
:100600009A6002689268C3681A4303689A60424B12
:10061000826A9A4218D00268926822F07062036877
:100620009A6002689268836A1A4303689A60026853
:10063000926822F0405203689A6002689268C36A26
:100640001A4303689A600BE00268926822F07062B5
:1006500003689A600268926822F0405203689A60C8
:100660000268926822F0020203689A600268936846
:10067000826943EA420203689A60026AD2B1026860
:10068000526842F4006203685A600268526822F4B9
:10069000604203685A6002685368426A521E4FF40F
:1006A000604494FAA4F4B4FA84F4A24013430268B8
:1006B000536005E00268526822F4006203685A60E1
:1006C0000268D26A22F470020368DA620268D36AAE
:1006D000828B521E43EA02520368DA620268926811
:1006E00022F4007203689A6002689368026B43EA1E
:1006F000422203689A600268926822F4806203686A
:100700009A6002689368426943EA822203689A60A9
:1007100010BD0000002301400100000F00BFFEE7F4
:1007200010B5024800F08AFB10BD000064080020EC
:1007300010B5024800F082FB10BD000064080020E4
:1007400010B5024800F07AFB10BD0000A808002098
:1007500010B5024800F072FB10BD0000A808002090
:100760002DE9F04104460D46002700260DB9666BC1
:1007700000E0A66B206800F5D87000EB051000685B
:1007800000F00400B060B06858B9206800F5D87077
:1007900000EB0510006840F2FF7101EA5050306034
:1007A0000AE0206800F5D87000EB051000686FF0D3
:1007B000604101EAD0007060206800F5D87000EB5D
:1007C0000510006800F00200F060206800F5D870A5
:1007D00000EB0510406800F00F00306135622068C2
:1007E00000F5D87000EB05104068C0F30720F061F9
:1007F000206800F5D87000EB05108068307520681F
:1008000000F5D87000EB05108068010A717520684A
:1008100000F5D87000EB05108068010CB1752068F8
:1008200000F5D87000EB05108068000EF0752068A8
:1008300000F5D87000EB0510C0683076206800F530
:10084000D87000EB0510C068010A7176206800F5C9
:10085000D87000EB0510C068010CB176206800F577
:10086000D87000EB0510C068000EF0764DB920205E
:100870002168C8602068406920F00A00216848614A
:1008800008E02020216808612068406920F05000BD
:100890002168486194F83C70222F01D0322F05D195
:1008A0002068406920F40F4021684861CDB994F870
:1008B0003C00422804D0622806D072280CD107E000
:1008C000122084F83C000BE0322084F83C0007E062
:1008D000522084F83C0003E0012084F83C0000BF73
:1008E00019E094F83C00522804D0622806D07228FF
:1008F0000CD107E0122084F83C000BE0222084F8A1
:100900003C0007E0422084F83C0003E0012084F82A
:100910003C0000BF00BF204600F0B8FD0020BDE84D
:10092000F08110B504462068406920F0010021687C
:10093000486194F83C00122805D12068406920F4F1
:100940000F402168486194F83C00422804D05228A6
:1009500006D072280CD107E0222084F83C000BE07E
:10096000322084F83C0007E0622084F83C0003E079
:10097000012084F83C0000BF00BF204600F016FFB5
:10098000002010BD10B5024800F026FF10BD000089
:100990004C0B002010B5024800F01EFF10BD0000F7
:1009A0002C0A002010B5024800F016FF10BD000010
:1009B0008C0A002010B5024800F00EFF10BD0000A8
:1009C000AC0B002010B5024800F006FF10BD00007F
:1009D000EC0A00200146087810381823B0FBF3F227
:1009E0000848805CC865032A05D908686FF30900C8
:1009F000001D886503E008686FF309008865886D4D
:100A000070470000B4BC0008014600208A6A8B6968
:100A1000CBB932B1012A0DD0022A03D0032A10D15A
:100A20000EE000BFCB6A03F08073B3F1807F00D18A
:100A3000012007E0CB6AB3F1C07F00D1012001E0C3
:100A400000E000BF34E08B69B3F5005F1AD132B12A
:100A5000012A07D0022A03D0032A11D10AE000BFDD
:100A600001200EE0CB6A03F08073B3F1807F00D1E8
:100A7000012006E0CB6AB3F1C07F00D1012000E085
:100A800000BF15E032B1012A05D0022A04D0032AA2
:100A90000CD103E000BF00BF012008E0CB6A03F0E7
:100AA0008073B3F1807F00D1012000E000BF00BF60
:100AB000704730B50468246824F4802405682C60ED
:100AC000046863608468402C04D10468A2600468F0
:100AD000E16003E00468A1600468E26030BD704733
:100AE00038B502460020009000BF92F83C00012873
:100AF00001D1022038BD012082F83C0000BF086807
:100B0000092816D91068C0680C780A3C04EB440523
:100B10000724AC40A0431468E0600C780A3C04EB66
:100B200044048868A0401468E46820431468E060C6
:100B300013E0106800690C7804EB44050724AC400E
:100B4000A043146820610C7804EB44048868A0403A
:100B5000146824692043146820614868072817D264
:100B60001068406B0C79641E04EB84051F24AC40B4
:100B7000A04314686063088880B20C79641E04EB9B
:100B80008404A0401468646B20431468606331E0FF
:100B900048680D2817D21068006B0C79E41F04EB2D
:100BA00084051F24AC40A04314682063088880B2E9
:100BB0000C79E41F04EB8404A0401468246B2043E8
:100BC0001468206316E01068C06A0C790D3C04EBD1
:100BD00084051F24AC40A0431468E062088880B2FA
:100BE0000C790D3C04EB8404A0401468E46A2043B3
:100BF0001468E0621A4B1B4C1068A04206D10868CA
:100C0000122803D1586840F480005860154C1068D1
:100C1000A0421ED1144C0868A04202D008681128D6
:100C200017D1586840F4000058600F4C0868A04283
:100C30000FD10E4800680E4CB0FBF4F000EB8000C2
:100C40004000009002E00098401E009000980028AC
:100C5000F9D100BF002082F83C0000BF00BF49E787
:100C6000002301400020014012000010A4010020D8
:100C700040420F0070B5044600250CB9012070BD3C
:100C80001549A06A884200D000BF206C30B900200E
:100C9000606484F83C00204600F020F8206C00F0EE
:100CA000100088B9206C20F4885040F002002064C5
:100CB0002046FFF77DFC00206064206C20F00200DD
:100CC00040F00100206400E0012500BF002084F80E
:100CD0003C0000BF2846D2E70100000F10B586B0E7
:100CE000044610492068884219D100BF00200090B6
:100CF0000D48006840F480700B49086008460068A1
:100D000000F48070009000BF00BF0220019003201B
:100D100002900020039001A9044800F039FF06B0BA
:100D200010BD00000020014044380240000802408D
:100D300070B504460A460023157D012000FA05F32C
:100D40003C4901F50071086840F00100086008683E
:100D500020F47C5008600868556A40EA0520086065
:100D6000C8699843C861A1F50071D069C8B9D1F8C4
:100D70000C029843C1F80C02908880B2958940EA31
:100D8000054501F51070566940F83650108880B25C
:100D9000158940EA054501F51070566900EBC6005B
:100DA0004560D069012819D1D1F80C021843C1F867
:100DB0000C02908880B2158840EA054501F5107054
:100DC000566940F83650908980B2158940EA054549
:100DD00001F51070566900EBC6004560906928B9AE
:100DE000D1F804029843C1F8040204E0D1F80402E7
:100DF0001843C1F80402106920B9D1F814029843CD
:100E0000C1F814021069012804D1D1F81402184362
:100E1000C1F81402106A012804D1D1F81C02184349
:100E2000C1F81C02D1F8000220F00100C1F8000254
:100E3000002070BD00640040704700002DE9F041C3
:100E40000446002500260027A8462068C068C0F395
:100E5000001520684069C0F3C0062DB126B148F4E2
:100E6000007810202168C86020680069C0F3001570
:100E700020684069C0F380162DB126B148F480681F
:100E80001020216808612068406900F001000028F6
:100E90003BD0206880687A490840884201D101200F
:100EA00000E00020054620688068764908408842B6
:100EB00001D1012000E000200646206880687249C8
:100EC0000840884201D1012000E0002007460DB90A
:100ED00006B9D7B120688068C0F3400520688068F3
:100EE000C0F3402620688068C0F340470DB906B9BA
:100EF0001FB12046FFF715FD01E048F400682068A7
:100F0000806862490843216888602068C06800F0F2
:100F1000030520684069C0F3400625B11EB10021D9
:100F20002046FFF71DFC2068006900F003052068DB
:100F30004069C0F3001625B11EB101212046FFF71C
:100F40000FFC206C40EA080020642068806900F0F3
:100F5000010520684069C0F3002620684069C0F39D
:100F6000C0372DB126B11FB1206C40F001002064C4
:100F700020688069C0F3400520684069C0F34026BE
:100F800020684069C0F3C0372DB126B11FB1206C75
:100F900040F00200206420688069C0F3800520686A
:100FA0004069C0F3802620684069C0F3C0372DB186
:100FB00026B11FB1206C40F00400206420688069D5
:100FC00000F0700008B9012000E00020054620680C
:100FD0004069C0F3C02620684069C0F3C03795BBA4
:100FE0008EB387B32068806900F07005402D1BD058
:100FF00006DC102D09D0202D0CD0302D24D10EE090
:10100000502D16D0602D1FD118E0206C40F0080044
:1010100020641AE0206C40F01000206415E0206C81
:1010200040F02000206410E0206C40F0400020647C
:101030000BE0206C40F08000206406E0206C40F45F
:101040008070206401E007E000BF00BF2068806975
:1010500020F0700021688861206C78B1042021683C
:101060004860012084F83C002068406948F65B71C4
:101070008843216848612046FFF7DEFEBDE8F08125
:10108000030000040003000800000310190501001C
:1010900070B50446002600250CB9012070BD94F8F7
:1010A0003C0028B9002084F83D00204600F0CEF82E
:1010B000022084F83C002068006820F002002168CB
:1010C00008602068006840F001002168086000F0B6
:1010D00073FE05460EE000F06FFE401B0A2809D99A
:1010E000032084F83C0000BF002084F83D0000BFCE
:1010F0000320D3E72068406800F001000028EAD010
:101100002068406800F00100002875D0A06901281F
:1011100006D12068006840F080002168086005E082
:101120002068006820F0800021680860E0690128DC
:1011300006D12068006840F040002168086005E0A2
:101140002068006820F0400021680860206A0128BB
:1011500006D12068006840F020002168086005E0A2
:101160002068006820F0200021680860606A01287B
:1011700006D12068006840F010002168086005E092
:101180002068006820F0100021680860A06A01282B
:1011900006D12068006840F008002168086005E07A
:1011A0002068006820F0080021680860E06A0128D3
:1011B00006D12068006840F004002168086005E05E
:1011C0002068006820F0040021680860D4E902016A
:1011D000084321690843616908436168491E08435F
:1011E0002168C8612068006820F00100216808605B
:1011F00000F0E2FD05460FE01AE000F0DDFD401BC7
:101200000A2809D9032084F83C0000BF002084F894
:101210003D0000BF032041E72068406800F0010066
:101220000028EAD12068406800F0010000B90126DA
:10123000012E06D100202064012084F83C0000200B
:101240002CE7042084F83C00012027E710B586B085
:10125000044645492068884237D144480068401C0C
:10126000424908600846006801280FD100BF0020ED
:1012700000903F48006840F000703D490860084613
:10128000006800F00070009000BF00BF03200190D4
:101290000220029000200390032004900920059072
:1012A00001A9344800F074FC00220521132000F04D
:1012B00003FE132000F0F3FD00220521142000F0AE
:1012C000FBFD142000F0EBFD4BE02B492068884229
:1012D00047D100BF002000902548006840F08060A2
:1012E000234908600846006800F08060009000BF55
:1012F00000BF1E480068401C1C4908600846006882
:1013000001280FD100BF002000901948006840F06C
:101310000070174908600846006800F000700090EF
:1013200000BF00BF4FF44050019002200290002007
:101330000390032004900920059001A90F4800F0B4
:1013400027FC002206213F2000F0B6FD3F2000F0E0
:10135000A6FD00220621402000F0AEFD402000F056
:101360009EFD06B010BD000000640040F8000020A3
:1013700040380240000C0240006800400004024077
:10138000024689B992F83C0022280BD092F83C0022
:10139000422807D092F83C00622803D092F83C0023
:1013A000722801D102207047012911D192F83C0026
:1013B00032280BD092F83C00522807D092F83C001B
:1013C000622803D092F83C00722801D10220EAE79B
:1013D00000BF92F83D00012801D10220E3E701207F
:1013E00082F83D0000BFC9B992F83C00122804D031
:1013F000322806D052280CD107E0422082F83C0067
:101400000BE0622082F83C0007E0722082F83C008A
:1014100003E0222082F83C0000BF19E092F83C0073
:10142000122804D0222806D042280CD107E05220EE
:1014300082F83C000BE0622082F83C0007E072205A
:1014400082F83C0003E0322082F83C0000BF00BF7D
:10145000002010641068406948F60173184313684F
:10146000586100BF002082F83D0000BF31B910680C
:10147000406940F00A001368586105E0106840694F
:1014800040F050001368586100208CE710B5044606
:10149000154884420AD115480068A0B1636B03F176
:1014A00014011868114B1A6890470CE010488442E8
:1014B00009D10E48406830B1636B03F1140118681C
:1014C0000A4B5A68904708480068406940F002009B
:1014D00005490968486106480068406940F0020013
:1014E00003490968486110BD640800201801002004
:1014F000A80800202DE9F04104460E4604250027E7
:101500002068806800F08060B0F1806F0DD02068A6
:10151000806800F00060B0F1006F06D0206880683D
:1015200000F08050B0F1805F7DD100BF94F83D00A5
:10153000012802D10220BDE8F081012084F83D009D
:1015400000BF94F83C00222804D0322806D062283C
:101550000CD107E0422084F83C000BE0522084F8D4
:101560003C0007E0722084F83C0003E0122084F87D
:101570003C0000BF00BF2068806800F08060B0F1D0
:10158000806F01D1002509E02068806800F00060CC
:10159000B0F1006F01D1012500E00225206800F5BF
:1015A000C07000EB0510006800F00101206800F534
:1015B000C07000EB05100160206B806898B920684E
:1015C00000F5C07000EB05100068216BC968226B44
:1015D000128841EA42510843216801F5C07101EBCC
:1015E0000511086015E0206800F5C07000EB0510DB
:1015F0000068216B8968226B526841EAC201226B44
:10160000D26811430143206800F5C07000EB05105B
:101610000160206B007C00F00F00216B08612068E6
:1016200000F5C07000E0B6E000EB0510406820F067
:101630000F01206800F5C07000EB051041602068C4
:1016400000F5C07000EB05104068216B0969084384
:10165000216801F5C07101EB05114860206BC07D68
:101660000106206B807D41EA0041206B407D41EA0C
:101670000020216B097D0843216801F5C07101EB51
:1016800005118860206BC07E0106206B807E41EAD8
:101690000041206B407E41EA0021206B007E014327
:1016A000206800F5C07000EB0510C160206800F5EF
:1016B000C07000EB0510006840F00101206800F5E3
:1016C000C07000EB0510016000F076FB074620E0DB
:1016D000701CF0B126B100F06FFBC01BB04218D9EE
:1016E000032084F83C001DB980202168886009E04F
:1016F000012D03D1E8032168886003E04FF4000066
:101700002168886000BF002084F83D0000BF0320EE
:1017100011E74DB92068806821490840884201D10D
:10172000012016E0002014E0012D09D12068806816
:101730001C490840884201D101200AE0002008E04D
:101740002068806818490840884201D1012000E0E3
:1017500000200028BCD094F83C00422804D0522835
:1017600006D072280CD107E0222084F83C000BE060
:10177000322084F83C0007E0622084F83C0003E05B
:10178000012084F83C0000BF00BF00BF002084F8A7
:101790003D0000BFCFE6042084F83C000120CAE6EB
:1017A0000300000400030008000003107047014616
:1017B00091F83500022803D0802048650120704749
:1017C000052081F835000868006820F001000A68EB
:1017D00010600020F3E70000F8B5044600200090F8
:1017E0008D4800684FF41651B0FBF1F7A56D2E68D7
:1017F00094F85C1008208840304098B12068006858
:1018000000F0040070B12068006820F00400216836
:10181000086094F85C1008208840A860606D40F073
:101820000100606594F85C107C488840304068B1E5
:101830002068406900F0800040B194F85C1077485F
:101840008840A860606D40F00200606594F85C100C
:101850007248C01C8840304070B12068006800F0B9
:10186000020048B194F85C106C48C01C8840A86025
:10187000606D40F00400606594F85C1010208840B2
:10188000304078B32068006800F0080050B394F846
:101890005C1010208840A8602068006800F4802058
:1018A00080B12068006800F4002028B9206CC8B11D
:1018B0002046216C884715E0A06C98B12046A16CA9
:1018C00088470FE02068006800F4807028B920681D
:1018D000006820F0080021680860206C10B12046E4
:1018E000216C884794F85C10202088403040002804
:1018F00065D02068006800F0100000285FD094F8E0
:101900005C1020208840A86094F83500052828D174
:101910002068006820F0160021680860206840698F
:1019200020F0800021684861206C08B9A06C28B1C3
:101930002068006820F008002168086094F85C10B6
:101940003F208840A86000BF002084F8340000BF1A
:10195000012084F83500206D10B12046216D8847A4
:10196000F8BD2068006800F4802080B1206800681D
:1019700000F4002028B9606C10B12046616C8847E3
:101980001DE0E06BD8B12046E16B884717E0206886
:10199000006800F4807068B92068006820F01000CA
:1019A0002168086000BF002084F8340000BF0120D7
:1019B00084F83500E06B10B12046E16B8847606D1C
:1019C00038B3606D00F00100F0B1052084F83500F7
:1019D0002068006820F001002168086000BF0098BE
:1019E000401C0090B84200D905E02068006800F073
:1019F00001000028F3D100BF00BF002084F83400AC
:101A000000BF012084F83500E06C10B12046E16C85
:101A1000884700BFA4E70000A40100200100800067
:101A20002DE9F0410446002500F0C6F9074614B937
:101A30000120BDE8F081606A00B100BF00BF002056
:101A400084F8340000BF022084F835002068006864
:101A500020F00100216808600AE000F0ADF9C01B29
:101A6000052805D920206065032084F83500E0E7CB
:101A70002068006800F001000028EED120680568A9
:101A800021480540D4E901010843E1680843216980
:101A9000084361690843A1690843E1690843216A71
:101AA00008430543606A042803D1D4E90B010843C5
:101AB0000543206805602068456925F00705606AD0
:101AC0000543606A04280DD1A06A0543E06A48B165
:101AD0002046FEF799FF28B140206065012084F878
:101AE0003500A6E7206845612046FEF773FF0646ED
:101AF00094F85C103F208840B060002060650120B1
:101B000084F83500002094E73F8010F02DE9F04183
:101B100004460D4616461F464FF0000800BF94F8D5
:101B20003400012802D10220BDE8F081012084F8B0
:101B3000340000BF94F83500012811D1022084F848
:101B40003500002060653B46324629462046FEF7B8
:101B5000B0FF2068006840F001002168086006E0DE
:101B600000BF002084F8340000BF4FF00208404658
:101B7000DAE731B500F020F90546009C601C00B1A1
:101B8000641C00BF00F018F9401BA042FAD338BD16
:101B9000F8B502460B460025002400200021E6E0AF
:101BA000012606FA01F51E6806EA0504AC4273D167
:101BB0005E68022E02D05E68122E13D1CF0802F1A9
:101BC000200656F827004E07F70E0F26BE40B043FA
:101BD0004F07FF0E1E69BE403043CF0802F12006BA
:101BE00046F8270010684F000326BE40B0431E7918
:101BF00006F003064F00BE40304310605E68012EC1
:101C000008D05E68022E05D05E68112E02D05E6894
:101C1000122E13D190684F000326BE40B0434F00F0
:101C2000DE68BE4030439060506801268E40B0436D
:101C30001E79C6F300168E4030435060D0684F00C6
:101C40000326BE40B0434F009E68BE403043D06084
:101C50005E6806F08056B6F1805FA8D100BF00260E
:101C60000096454E366846F48046434F3E603E46F9
:101C7000366806F48046009600BF00BF3F4E8F08CE
:101C800056F827008E07370F0F26BE40B0433C4E54
:101C9000B24202D100262EE068E03A4EB24201D1B3
:101CA000012628E0384EB24201D1022623E0374E09
:101CB000B24201D103261EE0354EB24201D10426C4
:101CC00019E0344EB24201D1052614E0324EB24240
:101CD00001D106260FE0314EB24201D107260AE0BB
:101CE0002F4EB24201D1082605E02E4EB24201D15C
:101CF000092600E00A268F073F0FBE4030431F4EE3
:101D00008F0846F82700284E3068A0435E6806F426
:101D10008036B6F5803F00D12043234E3060361D1B
:101D20003068A0435E6806F40036B6F5003F00D187
:101D300020431D4E361D3060361D3068A0435E685E
:101D400006F48016B6F5801F00D12043164E0836E3
:101D50003060361D3068A0435E6806F40016B6F5A4
:101D6000001F00D12043104E0C363060491C102952
:101D7000FFF416AFF8BD00004438024008380140B7
:101D8000000002400004024000080240000C024033
:101D9000001002400014024000180240001C0240E3
:101DA0000020024000240240003C01400AB1816151
:101DB00001E00B0483617047014800687047000030
:101DC000F400002002480068401C01490860704788
:101DD000F400002010B50D48006840F400700B4975
:101DE00008600846006840F48060086008460068A3
:101DF00040F480700860032000F09CF8002000F0A0
:101E000007F800F04BF8002010BD0000003C024035
:101E100070B588B0044600250026002221463620F1
:101E200000F04AF8362000F03AF800BF0020019098
:101E30001648006840F01000144908600846006821
:101E400000F01000019000BF00BF02A903A800F03D
:101E500077FB00F09DFB45000D48B5FBF0F0461EFA
:101E60000C480D49086040F2E7310B48C1604660FC
:101E700000210161816001F094FA20B9064801F067
:101E8000ABFA08B070BD0120FBE70000403802400B
:101E900040420F00001000400C0C0020704700BFB3
:101EA00000F01F02012191404209920002F1E0225C
:101EB000C2F8001100BF70472DE9F05F80460D4663
:101EC0001646002702F0D2FD074639462A46334619
:101ED00001F00700C0F1070ABAF1040F02D94FF070
:101EE000040A01E0C0F1070AD14600F1040ABAF180
:101EF000070F02D24FF0000A01E0A0F1030AD44616
:101F00004FF0010A0AFA09FAAAF1010A0AEA020ADA
:101F10000AFA0CFA4FF0010B0BFA0CFBABF1010BB8
:101F20000BEA030B4AEA0B042146404602F0A6FDE9
:101F3000BDE8F09F00BF00F00702064B19684FF69E
:101F4000FF031940044B0B4343EA0221014B196084
:101F500000BF70470CED00E00000FA0538B5002422
:101F600000BF002000902348006840F080502149C5
:101F700008600846006800F08050009000BF00BF75
:101F80000120010491FAA1F1B1FA81F11A4A42F853
:101F90002100FFF711FF044607E0FFF70DFF001BCC
:101FA000B0F57A7F01D9032038BD1448406800F4A9
:101FB0008030B0F5803FF0D10120410491FAA1F1C9
:101FC000B1FA81F10C4A42F82100FFF7F5FE044610
:101FD00007E0FFF7F1FE001BB0F57A7F01D903207F
:101FE000E2E70648406800F40030B0F5003FF0D169
:101FF0000020D9E74038024000000E420070004047
:10200000F8B5044600250026207800F0010020B92C
:10201000207800F00200022866D10020CE498866B0
:10202000FFF7CAFE054606E0FFF7C6FE401B022882
:1020300001D90320F8BDC9480068C0F3C06000287A
:10204000F2D1207800F0010098B147F6C07191FA02
:10205000A1F1B1FA81F1606888404FF0E04292FA54
:10206000A2F2B2FA82F2A16891400843BB498431DE
:102070000860207800F00200022821D1B74884309F
:10208000006800F0E0404FF0E04191FAA1F1B1FAB0
:1020900081F120FA01F660688101207B41EA00604D
:1020A00040EA0670AD4984310860AC488C30006865
:1020B00020F01F00E169491E0843A8498C310860DF
:1020C0000120A5498866FFF777FE054606E0FFF781
:1020D00073FE401B022801D90320ABE79F4800682C
:1020E000C0F3C0600028F2D0207800F0040004287B
:1020F00004D0207800F0080008287DD100209649FF
:102100000867FFF759FE054606E0FFF755FE401B3E
:10211000022801D903208DE790480068C0F3407081
:102120000028F2D1207800F00400042834D18B4834
:102130008830006800F0E0404FF0E04191FAA1F1F2
:10214000B1FA81F120FA01F647F6C07191FAA1F1D6
:10215000B1FA81F1206988404FF0706292FAA2F2E0
:10216000B2FA82F26169914008434FF0E04191FA7E
:10217000A1F1B1FA81F106FA01F1084377498831FA
:102180000860081D006820F4F851206A401E41EAEA
:10219000002072498C310860207800F0080008287F
:1021A00034D16E488830006800F070604FF0706184
:1021B00091FAA1F1B1FA81F120FA01F647F6C07166
:1021C00091FAA1F1B1FA81F1206988404FF0706174
:1021D00091FAA1F1B1FA81F106FA01F108434FF049
:1021E000E04292FAA2F2B2FA82F2A1699140084367
:1021F0005A498831086000E01CE0081D006820F49E
:102200004030616A084355498C31086001205249C9
:102210000867FFF7D1FD054606E0FFF7CDFD401B3F
:10222000022801D9032005E74C480068C0F340703C
:102230000028F2D0207800F0200020287ED100BFB6
:102240000020009045484030006840F080504349ED
:10225000403108600846006800F08050009000BFE0
:1022600000BF3F48006840F480703D490860FFF7B8
:10227000A3FD054606E0FFF79FFD401B022801D99C
:102280000320D7E63648006800F480700028F2D0BA
:1022900032487030006800F440764EB3208D00F470
:1022A0004070B04224D02D487030006820F4407651
:1022B00001202C4908600020086028487030066022
:1022C000006800F0010098B1FFF776FD054608E0D0
:1022D000FFF772FD401B41F28831884201D903208B
:1022E000A8E61E4870300068C0F340000028EFD018
:1022F00000BF208D00F44070B0F5407F0CD117482E
:102300000830006820F4F810174AA16A1140084309
:1023100012490831086007E010480830006820F4CE
:10232000F8100E49083108600C4870300068218DA3
:10233000C1F30B0108430949703100E001E0086076
:1023400000BF207800F01000102803D194F82C0072
:102350000649086000206DE6000047420038024050
:1023600000700040400E4742FFFCFF0FE011474263
:1023700070B504460D4600266D48006800F00F0059
:10238000A84209D26A490D700846006800F00F00A3
:10239000A84201D0012070BD207800F00200022880
:1023A00007D16448006820F0F000A1680843614943
:1023B0000860207800F00100002877D060680128CC
:1023C00007D15C4808380068C0F34040B8B9012024
:1023D000E1E76068022802D06068032807D1554809
:1023E00008380068C0F3406048B90120D3E751487D
:1023F00008380068C0F3400008B90120CBE74D4819
:10240000006820F00300616808434A490860FFF74C
:10241000D3FC06466068012810D108E0FFF7CCFC29
:10242000801B41F28831884201D90320B3E741483B
:10243000006800F00C000428F0D137E06068022842
:1024400010D108E0FFF7B8FC801B41F288318842C8
:1024500001D903209FE73748006800F00C000828E6
:10246000F0D123E06068032810D108E0FFF7A4FC56
:10247000801B41F28831884201D903208BE72D4827
:10248000006800F00C000C28F0D10FE008E0FFF726
:1024900093FC801B41F28831884201D903207AE7FE
:1024A0002448006800F00C000028F0D120480068A3
:1024B00000F00F00A84209D91D490D7008460068B8
:1024C00000F00F00A84201D0012064E7207800F05E
:1024D0000400042807D11748006820F4E050E168A0
:1024E000084314490860207800F00800082808D143
:1024F0001048006820F46040216940EAC1000D499D
:10250000086000F071F80B49096801F0F001F02251
:1025100092FAA2F2B2FA82F2D140074A515CC84064
:10252000064908600020FFF773FC002033E7000035
:10253000003C024008380240F2BC0008A401002020
:102540000F2202600D4A126802F0030242600B4A39
:10255000126802F0F0028260084A126802F4E05247
:10256000C260064A126802F46042D2080261044A5C
:10257000126802F00F020A6070470000083802403B
:10258000003C02400148006870470000A4010020A0
:1025900000B5FFF7F7FF0749096801F4E0514FF470
:1025A000E05292FAA2F2B2FA82F2D140024A515CAF
:1025B000C84000BD0838024002BD000800B5FFF762
:1025C000E1FF0749096801F460414FF4604292FA63
:1025D000A2F2B2FA82F2D140024A515CC84000BD78
:1025E0000838024002BD000870B500210022002317
:1025F0000020274C246804F00C0424B1042C04D0DF
:10260000082C41D103E0234840E023483EE0204C21
:10261000241F246804F03F011D4C241F246804F487
:10262000800484B11C4CB4FBF1F5194C241F2468C0
:1026300047F6C076344096FAA6F6B6FA86F6F44027
:1026400005FB04F20FE0134CB4FBF1F5104C241F12
:10265000246847F6C076344096FAA6F6B6FA86F6AF
:10266000F44005FB04F20A4C241F246804F44034AF
:102670004FF4403595FAA5F5B5FA85F5EC40641CA4
:102680006300B2FBF3F001E0024800BF00BF70BD81
:10269000083802400024F400001BB70038B5044697
:1026A0000025207800F00100002874D0F748006869
:1026B00000F00C0004280DD0F448006800F00C0075
:1026C000082813D1F148001F006800F48000B0F51D
:1026D000800F0BD1ED4808380068C0F34040002857
:1026E00059D06068002856D1012038BD00BF60680D
:1026F000B0F5803F08D1E5480838006840F48030E4
:10270000E249083908601EE06068B0F5A02F0DD1DD
:10271000DE480838006840F48020DC490839086049
:102720000846006840F4803008600CE0D74808385C
:10273000006820F48030D5490839086008460068F0
:1027400020F48020086000BF606890B1FFF734FB80
:10275000054606E0FFF730FB401B642801D9032043
:10276000C3E7CA4808380068C0F340400028F1D0E9
:1027700011E0FFF721FB054606E0FFF71DFB401BBC
:10278000642801D90320B0E7C04808380068C0F3C6
:1027900040400028F1D1207800F00200022869D1E1
:1027A000BA48006800F00C0058B1B848006800F062
:1027B0000C00082821D1B548001F006800F48000F3
:1027C000D8B9B24808380068C0F3400020B1E068CA
:1027D000012801D0012088E7AC480838006820F0C3
:1027E000F800F82292FAA2F2B2FA82F2216991403C
:1027F0000843A649083908603CE0E06828B3012096
:10280000A3490860FFF7D8FA054606E0FFF7D4FAB7
:10281000401B022801D9032067E79C48083800685C
:10282000C0F340000028F1D098480838006820F034
:10283000F800F82292FAA2F2B2FA82F221699140EB
:10284000084392490839086014E000209049086064
:10285000FFF7B2FA054606E0FFF7AEFA401B022882
:1028600001D9032041E7894808380068C0F34000D7
:102870000028F1D1207800F0080008282CD16069E8
:10288000A8B1012083490860FFF796FA054606E0E3
:10289000FFF792FA401B022801D9032025E77B4865
:1028A0006C300068C0F340000028F1D014E0002034
:1028B00078490860FFF780FA054606E0FFF77CFAE2
:1028C000401B022801D903200FE770486C300068D4
:1028D000C0F340000028F1D1207800F00400042863
:1028E0007FD100BF0020009068483830006840F079
:1028F00080506649383108600846006800F0805012
:10290000009000BF00BF6448006840F480706249D6
:102910000860FFF751FA054606E0FFF74DFA401B45
:10292000022801D90320E0E65B48006800F48070CB
:102930000028F2D000BFA068012808D153486830B1
:10294000006840F001005149683108601DE0A0684E
:1029500005280DD14D486830006840F004004B490F
:10296000683108600846006840F0010008600CE02B
:1029700046486830006820F001004449683108602A
:102980000846006820F00400086000BFA068A0B1FD
:10299000FFF712FA054608E0FFF70EFA401B41F276
:1029A0008831884201D903209FE6384868300068A2
:1029B000C0F340000028EFD013E0FFF7FDF9054613
:1029C00008E0FFF7F9F9401B41F28831884201D94C
:1029D00003208AE62D4868300068C0F340000028D4
:1029E000EFD1A069F0B32948006800F00C00082876
:1029F00071D0A069022858D1002025490866FFF748
:102A0000DBF9054606E0FFF7D7F9401B022801D99C
:102A100003206AE61D4808380068C0F340600028BB
:102A2000F1D1D4E90701084347F6C07292FAA2F245
:102A3000B2FA82F2616A914008430122A16AC2EBB4
:102A400051014FF4403292FAA2F2B2FA82F291406E
:102A500008434FF0706292FAA2F2B2FA82F2E16A8F
:102A6000914000E039E008430849091F086001204F
:102A700007490866FFF7A0F905460FE0FFF79CF944
:102A8000401B02280AD903202FE600000838024024
:102A900000004742800E4742007000401048006826
:102AA000C0F340600028E9D017E000200D49086617
:102AB000FFF782F9054606E0FFF77EF9401B022882
:102AC00001D9032011E606480068C0F340600028E1
:102AD000F2D102E0FFE7012007E6002005E6000052
:102AE000003802400000474202460023106800F10F
:102AF000500303EB81031868704710B50023046886
:102B000004F1500303EB81031A6010BD2DE9F0417D
:102B100004460D461646002700BF207F012802D13B
:102B20000220BDE8F0810120207700BF02206077FD
:102B300000BFCA202168486253202168486200BF54
:102B40002068806800F48060E0B1FFF735F907463F
:102B500012E0FFF731F9C01BB0F57A7F0CD900BF46
:102B6000FF202168486200BF0320607700BF00207B
:102B7000207700BF0320D4E72068C068C0F380003E
:102B80000028E6D12068806820F480602168886091
:102B9000FFF712F9074612E0FFF70EF9C01BB0F578
:102BA0007A7F0CD900BFFF202168486200BF032054
:102BB000607700BF0020207700BF0320B1E72068C6
:102BC000C068C0F380000028E6D02068806820F04C
:102BD0000700216888602068806830432168886029
:102BE000206845612068806840F4806021688860C2
:102BF00000BFFF202168486200BF0120607700BF4E
:102C00000020207700BF00BF8BE7000010B504460E
:102C10000CB9012010BD607F20B90020207720462C
:102C200000F04EF80220607700BFCA202168486299
:102C300053202168486200BF204601F04BFF40B19D
:102C400000BFFF202168486200BF04206077012098
:102C5000E0E7206880681949084021688860216998
:102C600060680843616908432168896808432168EE
:102C700088602168E068086120680169208941EA6C
:102C80000040216808612068C06820F08000216849
:102C9000C8602068006C20F48020216808642068E7
:102CA000006CA16908432168086400BFFF20216807
:102CB000486200BF012060770020ABE7BFFF8FFFB5
:102CC000034A0168914202D10121024A1160704712
:102CD000002800403C0E47422DE9F04104460D46D5
:102CE0001646002700BF207F012802D10220BDE840
:102CF000F0810120207700BF022060774EB968780C
:102D000000F01000102804D1687800F0EF000A30BD
:102D1000687086B9E87801F0D0FE0304687801F0A5
:102D2000CCFE43EA0023A87801F0C7FE03432878CD
:102D300043EA403711E0687801F0B4FE0746A8780E
:102D400001F0B0FE0746E8780004697840EA012007
:102D5000A9780843297840EA413700BFCA20216892
:102D6000486253202168486200BF204601F0B2FE4D
:102D700060B100BFFF202168486200BF0420607777
:102D800000BF0020207700BF0120B0E71648384080
:102D9000216848602068C06820F080002168C86011
:102DA0002068806800F0200080B9204600F0B8F864
:102DB00060B100BFFF202168486200BF0420607737
:102DC00000BF0020207700BF012090E700BFFF2058
:102DD0002168486200BF0120607700BF0020207793
:102DE00000BF00BF83E700003FFFFF002DE9F04177
:102DF00004460D461646002700BF207F012802D159
:102E00000220BDE8F0810120207700BF022060771A
:102E1000CEB92068806800F0400000B102E00020D8
:102E2000E87000BF287801F048FE0304687801F0DC
:102E300044FE43EA0023A87801F03FFE0343E8780C
:102E400043EA004716E02068806800F0400020B1A7
:102E5000287801F027FE074602E00020E87000BF56
:102E600028780004697840EA0120A9780843E978C5
:102E700040EA014700BFCA20216848625320216808
:102E8000486200BF204601F025FE60B100BFFF2070
:102E90002168486200BF0420607700BF00202077CF
:102EA00000BF0120ADE71D48384021680860206858
:102EB000806820F4802021688860D5E903010843F8
:102EC000216889680843216888602068C06820F00C
:102ED00080002168C8602068806800F0200080B908
:102EE000204600F01DF860B100BFFF202168486255
:102EF00000BF0420607700BF0020207700BF0120C2
:102F00007FE700BFFF202168486200BF0120607793
:102F100000BF0020207700BF00BF72E77F7F7F00E7
:102F200070B5044600252068C06820F0A000216824
:102F3000C860FEF741FF054607E0FEF73DFF401B76
:102F4000B0F57A7F01D9032070BD2068C06800F019
:102F500020000028F1D00020F6E710B504460CB997
:102F6000012010BD606A00B900BF0021A16294F881
:102F7000510028B9002084F85000204600F034F8B1
:102F8000022084F851002068006820F04000216889
:102F90000860D4E901010843E16808432169084356
:102FA00061690843218B01F400710843E16908431A
:102FB000216A0843A16A0843216808600421A069C6
:102FC00001EA1040616A0843216848602068C069CE
:102FD00020F400602168C86100206065012084F849
:102FE00051000020BDE7000010B586B0044612492C
:102FF000206888421ED100BF002000900F48006862
:1030000040F480100D4908600846006800F4801004
:10301000009000BF00BF4FF460700190022002904A
:1030200000200390032004900520059001A9044886
:10303000FEF7AEFD06B010BD00500140443802401E
:10304000001402402DE9FE4F04460D4616461F4669
:10305000DDF830804FF0000A0020029081464FF0EA
:10306000010B019000BF94F85000012802D102200A
:10307000BDE8FE8F012084F8500000BFFEF79CFEE3
:10308000814694F851A060680290BAF1010F0BD00C
:103090000298B0F5827F04D1A06810B9BAF1040F8C
:1030A00002D002200190D2E00DB106B117B9012083
:1030B0000190CCE094F85100012802D1052084F859
:1030C000510000206065A663E787A7872563E78630
:1030D000A786206460642068006800F040004028F3
:1030E00005D02068006840F0400021680860E06872
:1030F000B0F5006F43D1606810B1E08E012806D1B1
:1031000028882168C860AD1CE08E401EE0862FE054
:10311000BBF1000F10D0E08E70B12068806800F025
:103120000200022808D128882168C860AD1CE08E02
:10313000401EE0864FF0000BE08F68B12068806889
:1031400000F0010040B12068C0683080B61CE08FFC
:10315000401EE0874FF0010B08F1010040B1FEF77F
:103160002BFEA0EB0900404502D3032001906EE046
:10317000E08E0028CCD1E08F0028C9D142E0606801
:1031800010B1E08E012806D12878216808736D1CE3
:10319000E08E401EE0862FE0BBF1000F10D0E08EE5
:1031A00070B12068806800F00200022808D115F88C
:1031B000010B21680873E08E401EE0864FF0000B83
:1031C000E08F68B12068806800F0010040B120689D
:1031D000C06806F8010BE08F401EE0874FF0010B3E
:1031E00008F1010040B1FEF7E7FDA0EB0900404502
:1031F00002D3032001902AE0E08E0028CCD1E08F9A
:103200000028C9D14346012202212046CDF8009072
:1032100001F093FC10B10320019018E04A464146AA
:10322000204601F076FC20B101200190202060654D
:103230000DE0A06850B900BF002000902068C06871
:10324000009020688068009000BF00BF00BF012090
:1032500084F8510000BF002084F8500000BF01989E
:1032600006E7042808D14FF0E021096941F0040184
:103270004FF0E022116107E04FF0E021096921F0F1
:1032800004014FF0E0221161704770B504462546F5
:10329000681EB0F1807F01D301200FE0681E4FF05F
:1032A000E02148610F214FF0FF3001F0E7FB0020E3
:1032B0004FF0E021886107200861002070BD704751
:1032C000704710B50346002200BF93F8380001286C
:1032D00001D1022010BD012083F8380000BF22F088
:1032E000FF00CC6840EA040222F440708C6840EA97
:1032F000040222F480604C6840EA040222F4006078
:103300000C6840EA040222F480500C6940EA04028E
:1033100022F400504C6940EA040222F480408C6997
:1033200040EA040222F400408C6940EA0402186872
:10333000426400BF002083F8380000BF00BFC9E727
:10334000024600BF92F83800012801D102207047E0
:10335000012082F8380000BF022082F8390010688E
:10336000406820F0700013685860106840680B686F
:103370001843136858601068806820F08000136854
:103380009860106880684B68184313689860012043
:1033900082F8390000BF002082F8380000BF00BF6B
:1033A000D5E710B504460CB9012010BD94F83900DA
:1033B00028B9002084F83800204600F00CF80220DC
:1033C00084F83900211D206801F0D4FC012084F824
:1033D00039000020E9E7704701460868C06840F0FE
:1033E00001000A68D0600868006840F001000A68BF
:1033F000106000207047704710B5044620680069CF
:10340000C0F34000D8B12068C068C0F34000B0B13C
:103410006FF0020021680861012020762068806931
:1034200000F0030018B12046FFF7E5FF05E0204655
:1034300000F042F9204600F067FA0020207620686C
:103440000069C0F38000D8B12068C068C0F3800074
:10345000B0B16FF004002168086102202076206876
:10346000806900F4407018B12046FFF7C4FF05E002
:10347000204600F021F9204600F046FA0020207690
:1034800020680069C0F3C000D8B12068C068C0F3EC
:10349000C000B0B16FF008002168086104202076F8
:1034A0002068C06900F0030018B12046FFF7A3FFB1
:1034B00005E0204600F000F9204600F025FA002043
:1034C000207620680069C0F30010D8B12068C06879
:1034D000C0F30010B0B16FF010002168086108203F
:1034E00020762068C06900F4407018B12046FFF7CC
:1034F00082FF05E0204600F0DFF8204600F004FAE5
:10350000002020762068006900F0010058B1206892
:10351000C06800F0010030B16FF00100216808615F
:10352000204600F019FA20680069C0F3C01058B1B5
:103530002068C068C0F3C01030B16FF0800021680F
:1035400008612046FFF7BBFE20680069C0F38010C9
:1035500058B12068C068C0F3801030B16FF04000EF
:1035600021680861204600F003FA20680069C0F372
:10357000401058B12068C068C0F3401030B16FF0FF
:103580002000216808612046FFF79AFE10BD000068
:1035900010B586B004462068B0F1804F0DD10F20E1
:1035A00001900220029000200390049001200590D9
:1035B00001A93748FEF7ECFA67E0364920688842EF
:1035C0000DD1302001900220029000200390049041
:1035D0000220059001A93048FEF7DAFA55E02F499C
:1035E000206888420ED14FF4704001900220029072
:1035F0000020039004900220059001A92848FEF7BE
:10360000C7FA42E02749206888421BD10120019077
:10361000022002900020039004900220059001A94E
:103620002148FEF7B5FA4FF4E050019002200290D5
:103630000020039004900220059001A91B48FEF78A
:10364000A7FA22E01A49206888420DD1E4200190AF
:10365000022002900020039004900320059001A90D
:103660001148FEF795FA10E01249206888420CD103
:103670004020019002200290002003900490092035
:10368000059001A90948FEF783FA06B010BD0000B5
:103690000000024000040040000402400008004016
:1036A000000C0240000C004000200240001C0240C0
:1036B0000004014000180040704770B504460D46F4
:1036C000164600BF94F83800012801D1022070BDD1
:1036D000012084F8380000BF022084F8390036B198
:1036E000042E1BD0082E31D00C2E5ED145E0294689
:1036F000206801F0BFFB2068806940F00800216865
:1037000088612068806920F0040021688861206851
:103710008069296908432168886147E02946206853
:1037200001F0E0FB2068806940F400602168886156
:103730002068806920F48060216888612068806941
:10374000296940EA0120216888612FE02946206824
:1037500001F004FC2068C06940F008002168C861DD
:103760002068C06920F004002168C8612068C06931
:10377000296908432168C86118E02946206801F0DA
:1037800029FC2068C06940F400602168C861206895
:10379000C06920F480602168C8612068C069296917
:1037A00040EA01202168C86100E000BF00BF01209D
:1037B00084F8390000BF002084F8380000BF00BF43
:1037C00085E710B504460CB9012010BD94F8390006
:1037D00028B9002084F83800204600F00DF80220B7
:1037E00084F83900211D206801F0C4FA012084F812
:1037F00039000020E9E7000008B50168B1F1804F09
:103800000FD100BF002100913949096841F0010141
:10381000374A11601146096801F00101009100BFAB
:1038200065E0344A016891420FD100BF0021009148
:103830002F49096841F002012D4A116011460968BB
:1038400001F00201009100BF51E02B4A0168914252
:103850000FD100BF002100912549096841F0040102
:10386000234A11601146096801F00401009100BF6C
:103870003DE0224A016891420FD100BF0021009132
:103880001B49096841F00801194A1160114609688D
:1038900001F00801009100BF29E0194A0168914236
:1038A00011D100BF002100911149091D096841F0A3
:1038B00002010F4A121D11601146096801F0020150
:1038C000009100BF13E00F4A016891420FD100BF81
:1038D000002100910649096841F04001044A116045
:1038E0001146096801F04001009100BF00BF08BD0A
:1038F000403802400004004000080040000C004036
:1039000000040140001800407047000030B5044634
:103910000D4601222946206801F09EFA0C492068D4
:10392000884203D00B492068884201D1012000E081
:10393000002028B12068406C40F4004021684864B1
:103940002068006840F0010021680860002030BD58
:10395000000001400004014010B5044603492068FE
:10396000884201D1FEF72EFA10BD00000010004081
:10397000704770472DE9F0470446206805682068C5
:10398000C668206847694FF00008C14605F00F0877
:10399000B8F1000F0AD105F0200038B106F0200080
:1039A00020B1204601F084FBBDE8F087B8F1000F9C
:1039B0006DD007F0010018B906F49070002866D0A9
:1039C00005F0010030B106F4807018B1E06B40F0F2
:1039D0000100E06305F0040030B107F0010018B108
:1039E000E06B40F00200E06305F0020030B107F048
:1039F000010018B1E06B40F00400E06305F008003E
:103A000030B107F0010018B1E06B40F00800E0634E
:103A1000E06B68B305F0200028B106F0200010B17B
:103A2000204601F045FB20684069C0F38019E06B37
:103A300000F0080010B9B9F1000F22D0204601F0C3
:103A400017FB2068406900F04000B0B12068406971
:103A500020F0400021684861606B50B11748616BED
:103A60000865606BFDF7A3FE10B1606B016D8847C0
:103A70000CE02046FFF77DFF08E02046FFF779FFC6
:103A800004E02046FFF775FF0020E0638CE705F0B7
:103A9000800030B106F0800018B1204601F00AFD28
:103AA00082E705F0400030B106F0400018B1204632
:103AB00001F0EEFA78E700BF76E700005D500008FD
:103AC00010B504460CB9012010BDA06900B100E09A
:103AD00000BF94F8390028B9002084F83800204647
:103AE00000F028F8242084F839002068C06820F409
:103AF00000502168C860204601F028FB206800695A
:103B000020F49040216808612068406920F02A0074
:103B1000216848612068C06840F400502168C8608E
:103B20000020E063202084F8390084F83A00002067
:103B3000CAE7000010B586B00446BF492068884235
:103B400046D100BF00200090BC48006840F0804093
:103B5000BA4908600846006800F08040009000BF45
:103B600000BF4FF4C070019002200290012003902A
:103B7000032004900820059001A9B148FEF708F839
:103B8000B048B14908604FF0206048600021AE485D
:103B90008160C1604FF480610161002141618161F8
:103BA000C16101624162FDF73BFF18B1CA21A7A0C4
:103BB00001F0D4FC00BFA4486063846300BF00220E
:103BC00005215220FEF778F95220FEF768F930E11E
:103BD000A2492068884245D100BF00200090974844
:103BE000006840F00040954908600846006800F011
:103BF0000040009000BF00BF03200190022002900F
:103C000001200390032004900820059001A98C480E
:103C1000FDF7BEFF8B4848309149086000054860B9
:103C200000218F488160C1604FF4806101610021F3
:103C300041618161C16101624162FDF7F1FE18B12C
:103C4000F72182A001F08AFC00BF8548606384638D
:103C500000BF002205215320FEF72EF95320FEF766
:103C60001EF9E6E07F492068884248D100BF002065
:103C700000907248001D006840F010006F49091D57
:103C800008600846006800F01000009000BF00BF08
:103C9000C020019002200290012003900320049094
:103CA0000720059001A97048FDF772FF6F48704921
:103CB00008604FF00060486000216D488160C1607D
:103CC0004FF480610161002141618161C161016244
:103CD0004162FDF7A5FE20B14FF492715BA001F0A7
:103CE0003DFC00BF62486063846300BF0022052181
:103CF0002520FEF7E1F82520FEF7D1F899E05D498F
:103D00002068884248D100BF002000904B480068DE
:103D100040F48020494908600846006800F480208B
:103D2000009000BF00BF4FF440700190022002904D
:103D300001200390032004900720059001A94E481C
:103D4000FDF726FF3F4830384C4908604FF00060CF
:103D50004860002149488160C1604FF48061016181
:103D6000002141618161C16101624162FDF758FE3C
:103D700020B140F2511135A001F0F0FB00BF3F48E7
:103D80006063846300BF002205212720FEF794F8BA
:103D90002720FEF784F84CE039492068884248D152
:103DA00000BF002000902548001D006840F0200062
:103DB0002249091D08600846006800F020000090B4
:103DC00000BF00BF4FF48440019002200290012008
:103DD0000390032004900820059001A92948FDF7CD
:103DE000D7FE22481838284908608005486000211D
:103DF00025488160C1604FF480610161002141610B
:103E00008161C16101624162FDF70AFE20B14FF498
:103E1000BF710EA001F0A2FB00BF1B48606384636A
:103E200000BF002205214720FEF746F84720FEF795
:103E300036F806B010BD000000780040403802405F
:103E400000100240586002402C0A00202E2E2F53F2
:103E500072632F75736172742E630000007C0040E2
:103E60008C0A00200010014000040240406402401F
:103E7000EC0A002000480040000C02404C0B0020DF
:103E80000014014000180240AC0B0020704770473E
:103E900000BFFEE71FB51748174908604FF4803090
:103EA0004860002114488160016181610162C16242
:103EB000124981620021C1600121C16100210163B9
:103EC00001214161FCF7D6FE18B152210CA001F08E
:103ED00045FB0B20009001200190002002906946D4
:103EE0000548FCF7FDFD18B15C2105A001F036FB8B
:103EF0001FBD000000200140084C00200100000F01
:103F00002E2E2F5372632F6164632E630000000016
:103F100010B50F480F4908600520486000210D4882
:103F20008160C1604FF400310161490141610021AC
:103F300081610121C1610021016241628162C1622E
:103F4000FDF7A6F818B1502103A001F007FB10BD42
:103F500000640040640800202E2E2F5372632F63EC
:103F6000616E2E630000000010B510481049086013
:103F70000520486000210E4881604FF04071C1600B
:103F80004FF400310161490141610021816101214A
:103F9000C1610021016241628162C162FDF778F86E
:103FA00018B1662103A001F0D9FA10BD00680040E5
:103FB000A80800202E2E2F5372632F63616E2E638C
:103FC0000000000008B500BF0020009022480068F3
:103FD00040F40010204908600846006800F4001012
:103FE000009000BF00BF00BF00200090084600689E
:103FF00040F4800008600846006800F480000090EB
:1040000000BF00BF002205210C20FDF755FF0C204A
:10401000FDF745FF002205210E20FDF74DFF0E2084
:10402000FDF73DFF002205211120FDF745FF11207E
:10403000FDF735FF002205213920FDF73DFF39202E
:10404000FDF72DFF002205213A20FDF735FF3A202C
:10405000FDF725FF08BD00003038024000B58BB0E9
:1040600014220D4906A8FCF7B3F9002106A804F0B4
:1040700058FE0A49086014220749143101A8FCF7C8
:10408000A7F9002101A804F04CFE0549086005F0DD
:1040900091FE0BB000BD0000BCBC0008FC0000207D
:1040A0001401002000B587B000BF002001909F4898
:1040B000006840F010009D4908600846006800F064
:1040C0001000019000BF00BF00BF00200190084613
:1040D000006840F0020008600846006800F0020036
:1040E000019000BF00BF00BF00200190084600689B
:1040F00040F0400008600846006800F04000019071
:1041000000BF00BF00BF002001900846006840F0DB
:10411000010008600846006800F00100019000BF3F
:1041200000BF00BF002001900846006840F0080072
:1041300008600846006800F00800019000BF00BF5A
:1041400000BF002001900846006840F480700860BD
:104150000846006800F48070019000BF00BF00BFF7
:10416000002001900846006840F0200008600846E2
:10417000006800F02000019000BF00BF00BF0020D9
:1041800001900846006840F080000860084600681A
:1041900000F08000019000BF00BF00BF0020019030
:1041A0000846006840F0040008600846006800F017
:1041B0000400019000BF00BF002241F61C015C48D2
:1041C000FDF7F4FD002242F2FE115A48FDF7EEFD24
:1041D000002244F241015848FDF7E8FD00223C214D
:1041E0005648FDF7E3FD002201215548FDF7DEFDAD
:1041F00041F61C00029001200390002004900590DD
:1042000002A94B48FDF7C4FC4FF4807002904D4862
:1042100003900020049002A94948FDF7B9FC42F23E
:10422000FE1002900120039000200490059002A946
:104230004048FDF7ADFC6020029000200390049000
:1042400002A93B48FDF7A4FC4FF400700290002047
:1042500003900120049002A93B48FDF799FC44F229
:10426000410002900120039000200490059002A9D3
:104270003148FDF78DFC3C20029001200390002086
:104280000490059002A92D48FDF782FC40F20240FF
:10429000029000200390049002A92748FDF778FCC3
:1042A00001200290002003900120049002A92748D9
:1042B000FDF76EFC3C20029000200390049002A9C0
:1042C0002248FDF765FC1020029000200390012099
:1042D000049002A91E48FDF75BFC4FF48060029039
:1042E00000200390049002A91A48FDF751FC2020F9
:1042F000029000200390049002A91548FDF748FCA5
:1043000002200290002003900120049002A90C4892
:10431000FDF73EFC012002900390002004900590E0
:1043200002A90748FDF734FC07B000BD3038024051
:10433000001002400018024000140240001C02401D
:10434000000402400000111000200240000802405A
:1043500000000240000C024000B587B02C482D49F7
:104360000860002048607C212A488160FF21C160EC
:104370000021016141618161FEF748FC18B14C21C7
:1043800025A001F0EBF800212248FEF7ADFB43F237
:10439000F221884230D00A208DF808001E208DF8C6
:1043A000090000208DF80A0005900690002202A95D
:1043B0001848FEF71BFD18B1592117A001F0CEF8DF
:1043C00003208DF8040010208DF8050012208DF8D0
:1043D000060011208DF80700002201A90D48FEF704
:1043E0007BFC18B163210CA001F0B8F843F2F22273
:1043F00000210848FEF781FB002211460548FEF720
:1044000085FB18B16C2104A001F0A8F807B000BD2D
:1044100000280040504C00202E2E2F5372632F7224
:1044200074632E630000000010B50F480F49086048
:104430004FF48270486000210C488160C1600161C6
:1044400041614FF4007181610021C16101624162EB
:1044500081620A21C162FEF780FD18B14F2104A0DC
:1044600001F07CF810BD000000500140B04B00206E
:104470002E2E2F5372632F7370692E63000000007D
:1044800000B587B013481449086000204860002137
:1044900011488160C1600161FFF793F920B140F2DA
:1044A0004D110EA001F05AF86020009000200190FC
:1044B00002900490002269460748FFF7FEF820B1F9
:1044C0004FF4AB7105A001F049F80348FFF760F81D
:1044D00007B000BD00180040744B00202E2E2F5353
:1044E00072632F74696D2E630000000000B589B0FF
:1044F0004FF0804029490860592048600021274832
:10450000816040F6C311C16000210161FFF759F9D4
:1045100018B14D2122A001F021F800200790089049
:1045200007A91E48FEF70CFF18B154211CA001F08A
:1045300015F8602000904FF47A70019000200290EE
:104540000490002269461548FFF7B7F818B15D21BD
:1045500013A001F003F8042269461048FFF7ADF8F4
:1045600018B162210EA000F0F9FF082269460B483D
:10457000FFF7A3F818B1672109A000F0EFFF0C22A4
:1045800069460648FFF799F818B16C2104A000F0BD
:10459000E5FF0248FEF7FCFF09B000BD484A0020D5
:1045A0002E2E2F5372632F74696D2E63000000004E
:1045B00000B589B020482149086059204860002191
:1045C0001E48816040F6C311C16000210161FFF700
:1045D000F8F818B17F211AA000F0C0FF0020079062
:1045E000089007A91548FEF7ABFE18B1862114A064
:1045F00000F0B4FF602000904FF47A70019000202A
:1046000002900490002269460C48FFF756F818B152
:104610008F210BA000F0A2FF042269460748FFF794
:104620004CF818B1942106A000F098FF0348FEF75B
:10463000AFFF09B000BD000000040040844A002024
:104640002E2E2F5372632F74696D2E6300000000AD
:1046500000B589B02A482B490860592048600021DC
:104660002848816040F6C311C16000210161FFF755
:10467000A8F818B1A72124A000F070FF002007902F
:10468000089007A91F48FEF75BFE18B1AE211EA0D7
:1046900000F064FF602000904FF47A7001900020D9
:1046A00002900490002269461648FFF706F818B1F8
:1046B000B72115A000F052FF042269461148FEF709
:1046C000FCFF18B1BC2110A000F048FF0822694689
:1046D0000C48FEF7F2FF18B1C1210BA000F03EFF1D
:1046E0000C2269460748FEF7E8FF18B1C62106A06C
:1046F00000F034FF0348FEF74BFF09B000BD000097
:1047000000080040C04A00202E2E2F5372632F74E1
:10471000696D2E630000000000B589B02A482B495E
:1047200008605920486000212848816040F6C31184
:10473000C16000210161FFF744F818B1D92124A01C
:1047400000F00CFF00200790089007A91F48FEF713
:10475000F7FD18B1E0211EA000F000FF60200090DE
:104760004FF47A7001900020029004900022694674
:104770001648FEF7A2FF18B1E92115A000F0EEFEE1
:10478000042269461148FEF798FF18B1EE2110A0E7
:1047900000F0E4FE082269460C48FEF78EFF18B1CF
:1047A000F3210BA000F0DAFE0C2269460748FEF761
:1047B00084FF18B1F82106A000F0D0FE0348FEF7F0
:1047C000E7FE09B000BD0000000C0040FC4A0020DC
:1047D0002E2E2F5372632F74696D2E63000000001C
:1047E00000B591B039483A490860B32048600021CB
:1047F0003748816040F6C311C16000210161416109
:10480000FEF7DFFF20B140F20D1132A000F0A6FE4E
:1048100000200F9010900FA92D48FEF791FD20B1B8
:104820004FF48A712BA000F099FE602008904FF49D
:104830007A70099000200A900B900C900D900E90C9
:10484000002208A92248FEF738FF20B14FF49071EA
:1048500020A000F083FE042208A91D48FEF72DFFCA
:1048600020B140F225111BA000F078FE082208A913
:104870001748FEF722FF20B14FF4957115A000F004
:104880006DFE0C2208A91248FEF717FF20B140F276
:104890002F1110A000F062FE002001900290039002
:1048A000049005904FF4005006900020079001A955
:1048B0000748FEF706FD20B140F23B1105A000F0CD
:1048C0004DFE0348FEF764FE11B000BD0004014038
:1048D000384B00202E2E2F5372632F74696D2E6378
:1048E0000000000010B50C480C4908604FF4E1309E
:1048F0004860002109488160C16001610C2141616B
:1049000000218161C161FFF7DBF818B1552104A0D6
:1049100000F024FE10BD000000780040EC080020EC
:104920002E2E2F5372632F75736172742E630000E5
:1049300010B50C480C4908604FF4E1304860002184
:1049400009488160C16001610C21416100218161E0
:10495000C161FFF7B5F818B1672104A000F0FEFDB2
:1049600010BD0000007C00402C0900202E2E2F538B
:1049700072632F75736172742E63000010B50C485A
:104980000C4908600C48486000210A488160C160F9
:104990004FF4806101610C21416100218161C1619D
:1049A000FFF78EF818B17A2104A000F0D7FD10BDF2
:1049B000001001406C090020A08601002E2E2F530C
:1049C00072632F75736172742E63000010B50C480A
:1049D0000C4908604FF4E1304860002109488160CB
:1049E000C16001610C21416100218161C161FFF75A
:1049F00067F818B18D2104A000F0B0FD10BD0000D3
:104A000000480040AC0900202E2E2F5372632F75F2
:104A1000736172742E63000010B50C480C49086075
:104A20004FF4E1304860002109488160C1600161B4
:104A30000C21416100218161C161FFF741F818B18A
:104A4000A02104A000F08AFD10BD00000014014068
:104A5000EC0900202E2E2F5372632F757361727430
:104A60002E63000000BFFEE77047000002480068A8
:104A7000C0F30220704700000CED00E010B50028E4
:104A800007DA0A07140E054A00F00F031B1FD4545F
:104A900003E00A07130E024A135410BD18ED00E09C
:104AA00000E400E0014600BF080900EB800042007E
:104AB00001F00F001044C0B270470146002203E02D
:104AC000521CA1F10A00C1B20A29F9D2100741EA29
:104AD0001060704770B5044600252068C06800F07B
:104AE0004000A0B9681E2168C860FDF765F9054659
:104AF00007E0FDF761F9401BB0F57A7F01D903208B
:104B000070BD2068C06800F040000028F1D000208F
:104B1000F6E7F8B504460D4616462B4600228021DE
:104B20002046009600F009F828B1606D40F02000A2
:104B300060650320F8BD0020FCE72DE9F041044644
:104B40000E4617461D46DDF818803FE0681CE0B3AE
:104B50002DB1FDF731F9A0EB0800A84236D320684B
:104B6000406820F0E000216848606068B0F5827F0E
:104B70000DD1A068B0F5004F03D0A068B0F5806FEC
:104B800005D12068006820F0400021680860A06A14
:104B9000B0F5005F0ED100BF206800684DF6FF71D0
:104BA0000840216808602068006840F400502168CF
:104BB000086000BF012084F8510000BF002084F885
:104BC000500000BF0320BDE8F081FFE72068806847
:104BD0003040B04201D1012000E00020B842B5D100
:104BE0000020F0E700BF322004F06AF8FBE710B5C0
:104BF00004F08FF810BD000010B59EB000BF00207B
:104C000000903948006840F08050374908600846F5
:104C1000006800F08050009000BF00BF00BF00207F
:104C200000903248006840F440403049086008462F
:104C3000006800F44040009000BF00BF09201290BF
:104C40004FF48030139001201790022018904105F6
:104C5000199106211A91B4211B9102211C9108215E
:104C60001D9112A8FDF71AFD18B1C42120A000F073
:104C700075FCFDF773F918B1CB211DA000F06EFC97
:104C80000F200D9002200E9000200F904FF4A050A6
:104C900010904FF48050119005210DA8FDF768FB8E
:104CA00018B1D92112A000F059FC20200190000178
:104CB0000B9001A8FDF7A4F918B1E0210CA000F0B9
:104CC0004DFCFDF75FFC4FF47A71B0FBF1F4204628
:104CD000FEF7DBFA0420FEF7C4FA00220F21501E73
:104CE000FDF7EAF81EB010BD4038024000700040E9
:104CF0002E2E2F5372632F6D61696E2E630000009C
:104D00001448006840F470001249086012480068B6
:104D100040F001001049086000200F490831086088
:104D20000D4800680D4908400B4908600C48091DF2
:104D30000860081F006820F48020091F0860002018
:104D400005490C3108604FF0006002498039086065
:104D50007047000088ED00E000380240FFFFF6FEDB
:104D60001030002410B50248FEF746FB10BD0000CD
:104D70000C0C0020002202682C4B98420ED0B0F19F
:104D8000804F0BD02A4B984208D02A4B984205D02E
:104D9000294B984202D0294B984201D1012300E0CF
:104DA00000231BB122F070024B681A431F4B98423C
:104DB00020D0B0F1804F1DD01D4B98421AD01D4B12
:104DC000984217D01C4B984214D01C4B984211D0DB
:104DD0001B4B98420ED01B4B98420BD01A4B98425B
:104DE00008D01A4B984205D0194B984202D0194B63
:104DF000984201D1012300E000231BB122F440724C
:104E0000CB681A4302608B68C3620B688362074BEE
:104E1000984202D0094B984201D1012300E00023BF
:104E20000BB10B690363012343617047000001402C
:104E30000004004000080040000C00400004014055
:104E4000004001400044014000480140001800407B
:104E5000001C00400020004030B50023012404FA6B
:104E600001F3046A9C430462046A02FA01F52C43CC
:104E7000046230BD30B5002400220023056A25F00D
:104E800001050562026A4368846924F0700424F015
:104E900003040D682C4322F002028D682A430F4D53
:104EA000A84202D00E4DA84201D1012500E0002504
:104EB0006DB122F00802CD682A4322F0040223F4E7
:104EC000807323F400734D692B438D692B4343603A
:104ED00084614D684563026230BD000000000140FE
:104EE0000004014030B5002400220023056A25F0AB
:104EF00010050562026A4368846924F4E04424F4DE
:104F000040740D6844EA052422F020028D6842EACC
:104F10000512104DA84202D00F4DA84201D1012523
:104F200000E0002585B122F08002CD6842EA05123A
:104F300022F0400223F4806323F400634D6943EAC6
:104F400085038D6943EA8503436084614D68856309
:104F5000026230BD000001400004014030B5002471
:104F600000220023056A25F480750562026A436801
:104F7000C46924F0700424F003040D682C4322F467
:104F800000728D6842EA0522104DA84202D0104DF1
:104F9000A84201D1012500E0002585B122F400627C
:104FA000CD6842EA052222F4806223F4805323F480
:104FB00000534D6943EA05138D6943EA05134360C5
:104FC000C4614D68C563026230BD0000000001404D
:104FD0000004014030B5002200230024056A25F4B6
:104FE00080550562036A4468C26922F4E04222F4F3
:104FF00040720D6842EA052223F400538D6843EAAB
:1050000005330A4DA84202D0094DA84201D101251D
:1050100000E0002525B124F480444D6944EA85145C
:105020004460C2614D680564036230BD0000014008
:105030000004014010B5034805F05AF80148FEF796
:1050400099FC10BDEC08002010B5034805F050F89D
:105050000148FEF78FFC10BD2C09002070B50546F5
:10506000AC6B0020E085E0842046FEF782FC70BD3A
:105070000168C96821F490710268D16001684969CA
:1050800021F0010102685161202180F83A10704737
:1050900010B504462068C06820F040002168C86050
:1050A000202084F839002046FEF7F1FE002010BDD4
:1050B00070B5044694F83A00222844D1A068B0F5AF
:1050C000805F13D1A56A206940B920684068C0F3A9
:1050D00008002880A06A801CA06219E0206840684F
:1050E000C0B22880A06A401CA06211E0206938B9D3
:1050F00020684068C1B2A26A501CA062117007E02B
:105100002068406800F07F01A26A501CA062117004
:10511000E08D401E80B2E08598B92068C06820F418
:1051200090702168C8602068406920F00100216803
:105130004861202084F83A002046FEF7A7FE0020B0
:1051400070BD0020FCE70220FAE700002DE9F041E5
:10515000044600252068056925F44055E0680543AC
:10516000206805612068C56849F20C6085432169A3
:10517000A068084361690843E16908430543206862
:10518000C5602068456925F44075A069054320681D
:105190004561E069B0F5004F7ED1C449206888427E
:1051A00003D0C349206888425DD1FDF707FA00EBC0
:1051B000C00101EB001061684900B0FBF1F064210F
:1051C000B0FBF1F00601FDF7F9F900EBC00101EBCE
:1051D000001061684900B0FBF1F7FDF7EFF900EB53
:1051E000C00101EB001061684900B0FBF1F06421DF
:1051F000B0FBF1F000EBC00101EB0010A7EB800069
:10520000322101EBC0006421B0FBF1F000F0F800A6
:1052100006EB4006FDF7D2F900EBC00101EB0010F0
:1052200061684900B0FBF1F7FDF7C8F900EBC00178
:1052300001EB001061684900B0FBF1F06421B0FBA4
:10524000F1F000EBC00101EB0010A7EB8000322170
:1052500001EBC0006421B0FBF1F000F00700304426
:105260002168886020E1FDF793F900EBC00101EBB4
:10527000001061684900B0FBF1F06421B0FBF1F06F
:105280000601FDF785F900EBC00101EB0010616834
:105290004900B0FBF1F700E045E0FDF779F900EBDC
:1052A000C00101EB001061684900B0FBF1F064211E
:1052B000B0FBF1F000EBC00101EB0010A7EB8000A8
:1052C000322101EBC0006421B0FBF1F000F0F800E6
:1052D00006EB4006FDF75CF900EBC00101EB0010A6
:1052E00061684900B0FBF1F7FDF752F900EBC0012E
:1052F00001EB001061684900B0FBF1F06421B0FBE4
:10530000F1F000EBC00101EB0010A7EB80003221AF
:1053100001EBC0006421B0FBF1F000F00700304465
:1053200021688860C0E061492068884203D06049F4
:10533000206888425CD1FDF741F900EBC00101EB28
:10534000001061688900B0FBF1F6FDF737F900EB5A
:10535000C00101EB001061688900B0FBF1F064212D
:10536000B0FBF1F000EBC00101EB0010A6EB8000F8
:10537000322101EB00106421B0FBF1F000F0F006E7
:10538000FDF71CF900EBC00101EB0010616889001A
:10539000B0FBF1F06421B0FBF1F006EB0016FDF775
:1053A0000DF900EBC00101EB001061688900B0FB52
:1053B000F1F7FDF703F900EBC00101EB00106168A4
:1053C0008900B0FBF1F06421B0FBF1F000EBC0010B
:1053D00001EB0010A7EB8000322101EB00106421EB
:1053E000B0FBF1F000F00F003044216888605BE012
:1053F000FDF7CEF800EBC00101EB001061688900F9
:10540000B0FBF1F6FDF7C4F800EBC00101EB0010B2
:1054100061688900B0FBF1F06421B0FBF1F000EBB2
:10542000C00101EB0010A6EB8000322101EB00105F
:105430006421B0FBF1F000F0F006FDF7A9F800EBF5
:10544000C00101EB001061688900B0FBF1F064213C
:10545000B0FBF1F006EB0016FDF79AF800EBC00187
:1054600001EB001061688900B0FBF1F7FDF790F8DF
:1054700000EBC00101EB001061688900B0FBF1F0A6
:105480006421B0FBF1F000EBC00101EB0010A7EBD1
:105490008000322101EB00106421B0FBF1F000F03C
:1054A0000F00304421688860BDE8F08100100140A1
:1054B00000140140014691F8390021282CD1886858
:1054C000B0F5805F0FD10A6A1088C0F308000B683E
:1054D0005860086918B9086A801C086209E0086AFF
:1054E000401C086205E00B6A581C086218780B68BB
:1054F0005860C88C401E80B2C88458B90868C0681B
:1055000020F080000B68D8600868C06840F0400058
:105510000B68D860002070470220FCE710B50348F4
:1055200004F0E6FD0148FEF725FA10BD6C090020E5
:1055300010B5034804F0DCFD0148FEF71BFA10BD6E
:10554000AC09002010B5034804F0D2FD0148FEF775
:1055500011FA10BDEC09002000BFFEE700BFFEE716
:1055600003B401984100009850EAC12018BF0420FC
:105570004A0D18BF40F0010040F2FF72B2EB515FDC
:1055800008BF40F00200012808BF052002B07047A4
:1055900070B5C1482DED020B2DED0E8B82B0119D23
:1055A00025F000449FEDBEDB9FEDBFEB84423EDB68
:1055B000A4F140511098A1F17F6108430FD0BC487D
:1055C000844202DC28D1109830B39DED100B02B05C
:1055D000BDEC0E8B02B0BDE8704001F079B89DEDD6
:1055E000100B53EC1D2B51EC100B05F0FFFF9DED44
:1055F000100B41EC180B53EC1E2B51EC100B05F06B
:10560000F5FF53EC182B05F097FD41EC100B02B0A1
:10561000BDEC0E8B02B070BD0120FAF73AFF02B06C
:10562000BDEC0E8B02B0BDE8704001F065B8A1483A
:105630009FEDA18B844256DA9DED100BB4F1795F9A
:105640000ADA51EC100BFFF78BFF042808BF01F0BA
:1056500063F89DED100BDAE753EC102B51EC100BB7
:1056600005F0C4FF41EC190B95480621B0EE490A3C
:10567000F0EE690A784400F017FF53EC192B51EC57
:10568000100B05F0B3FF41EC1A0B8E48B0EE490A3F
:10569000F0EE690A0421784400F006FF53EC192B60
:1056A00051EC100B05F0A2FF53EC182B05F044FD54
:1056B00041EC100B51EC1A0B53EC102B05F0E4FDF0
:1056C000CDE900019DED000B53EC102B9DED100B6F
:1056D00051EC100B05F08AFF9DED101B53EC112BC4
:1056E00005F02AFDD2E09DED100B51EC100B01F0FE
:1056F000E9FE53EC182B06F077F89FED730BCDE91C
:10570000000153EC102B9DED000B51EC100B05F03C
:105710006DFF41EC190B6E480621B0EE490AF0EE20
:10572000690A784400F0C0FE53EC192B51EC100BC1
:1057300005F05CFF41EC1B0B6648B0EE490AF0EE49
:10574000690A0421784400F0AFFE53EC192B51ECA8
:10575000100B05F04BFF53EC182B05F0EDFC41EC62
:105760001C0B51EC190B04F083FA41EC180B5A484E
:105770009FED5BABA04222DC53EC1C2B51EC1B0BCE
:1057800005F082FDCDE900019DED000B51EC180BF9
:1057900053EC102B05F02AFF53EC182B05F0CCFC32
:1057A00053EC1A2B05F022FF53EC1D2B06F0F4F8F6
:1057B00053EC1E2B06F018F841EC100B5FE08DED5A
:1057C000008B002000909DED000B51EC180B53EC6A
:1057D000102B05F0B1FC9DED000B41EC1E0B53ECC2
:1057E000102B51EC100B05F001FF53EC192B05F0B9
:1057F000FBFF53EC1E2B05F047FD41EC190B53EC5E
:105800001C2B51EC1B0B05F03FFD41EC1B0B53EC2B
:105810001A2B51EC190B05F0E9FE53EC1D2B05F08A
:10582000E3FF41EC190B53EC1A2B51EC180B05F06C
:10583000DDFE53EC1B2B05F0D9FE53EC192B06F0C3
:10584000ABF89DED000B41EC180B53EC1A2B51EC0F
:10585000100B05F0CBFE9FED249B53EC192B05F0AC
:10586000C3FF41EC100B51EC180B53EC102B06F05E
:1058700093F853EC192B05F0B7FF41EC100B002DFA
:105880003FF7C5AE51EC100B05F018FC41EC100BC6
:10589000BDE60000000000000000F03F0000000036
:1058A000075C143326A6913C182D4454FB21F93F84
:1058B0000000F07F0000E03F000000000000F03F2B
:1058C00098660000A6660000000000000000E03FAF
:1058D000EA650000F86500003333EF3F0000000088
:1058E0000000000000000040182D4454FB21E93F57
:1058F00070B59B482DED020B2DED068B079D25F015
:105900000044A04218DC9748844202DC0AD1069881
:1059100040B19DED060BBDEC068B02B0BDE87040BA
:1059200000F0D6BE002DCCBF9FED8F0B9FED900BEE
:10593000BDEC068B02B070BD8F48A04215DD8F48CC
:10594000A042D8BF4FF0FF3458DD9DED060B51EC5F
:10595000100BFFF705FE042808BF00F0DDFE9DEDEB
:10596000060BBDEC068B02B070BD9DED060B51EC35
:10597000100B01F0A7FDCDE9060181489FED828B58
:10598000A0423CDD8248A0421FDD00249FED82AB97
:105990009DED060B53EC1A2B51EC100B05F0CCFBD4
:1059A0009DED060B41EC190B53EC1A2B51EC100B2F
:1059B00005F01CFE53EC182B05F0EEFF53EC192BF1
:1059C00005F062FCCDE9060149E09DED060B0124DE
:1059D00053EC182B51EC100B05F0AEFB9DED060BB4
:1059E00041EC190B53EC182B51EC100B05F0D4FFC4
:1059F00053EC192B05F048FCCDE906012FE068486F
:105A0000A0421FDD02249FED689B9DED060B53EC29
:105A1000192B51EC100B05F0E9FD53EC182B05F098
:105A20008BFB9DED060B41EC180B53EC192B51EC45
:105A3000100B05F0B1FF53EC182B05F025FCCDE958
:105A400006010CE09DED060B032453EC102B9FED9B
:105A5000580B51EC100B05F017FCCDE906019DED3C
:105A6000060B53EC102B51EC100B05F0BFFD41EC75
:105A7000180B53EC182B05F0B9FD41EC190B4E48EF
:105A80000621B0EE490AF0EE690A784400F00CFDF8
:105A900053EC182B51EC100B05F0A8FD41EC180B42
:105AA0004648B0EE490AF0EE690A0521784400F054
:105AB000FBFC53EC192B51EC100B05F097FD41EC5E
:105AC000100B51EC180B53EC102B002C0EDA05F0D8
:105AD00033FB9DED061B53EC112B05F087FD9DED6F
