:020000040800F2
:10000000A80900206902000863130008D511000840
:100010005D1300086F030008972C00080000000023
:10002000000000000000000000000000711900083E
:10003000E30F00080000000043160008051B00083D
:10004000830200088302000883020008830200087C
:10005000830200088302000883020008830200086C
:10006000830200088302000883020008830200085C
:10007000830200088302000883020008830200084C
:10008000830200088302000883020008830200083C
:10009000710400088302000883020008830200083C
:1000A000830200088302000883020008830200081C
:1000B000711B0008891B00088302000883020008E6
:1000C00083020008830200088302000883020008FC
:1000D00083020008792800088302000883020008D0
:1000E00083020008830200088302000883020008DC
:1000F00083020008830200088302000883020008CC
:1001000083020008830200088302000883020008BB
:1001100083020008830200088302000883020008AB
:10012000830200088302000883020008830200089B
:10013000830200088302000883020008830200088B
:10014000830200088302000883020008830200087B
:10015000830200088302000883020008792900084E
:10016000830200088302000883020008830200085B
:10017000830200088302000883020008830200084B
:10018000830200088302000800F002F800F05CF827
:100190000AA090E8000C82448344AAF10107DA45E2
:1001A00001D100F051F8AFF2090EBAE80F0013F0D8
:1001B000010F18BFFB1A43F001031847F038000085
:1001C000103900000A444FF0000C10F8013B13F006
:1001D000070408BF10F8014B1D1108BF10F8015BA0
:1001E000641E05D010F8016B641E01F8016BF9D193
:1001F00013F0080F1EBF10F8014BAD1C0C1B09D1EA
:100200006D1E58BF01F801CBFAD505E014F8016B5B
:1002100001F8016B6D1EF9D59142D6D370470000ED
:100220000023002400250026103A28BF78C1FBD8FF
:10023000520728BF30C148BF0B6070471FB503F09D
:100240002AFC1FBD10B510BD00F058F81146FFF78D
:10025000F5FF02F0EBFF00F076F803B4FFF7F2FFD2
:1002600003BC00F07DF800000948804709480047BA
:10027000FEE7FEE7FEE7FEE7FEE7FEE7FEE7FEE756
:10028000FEE7FEE704480549054A064B70470000B3
:10029000091B000889010008A8030020A809002004
:1002A000A8050020A80500204FF0000200B5134665
:1002B00094469646203922BFA0E80C50A0E80C5086
:1002C000B1F12001BFF4F7AF090728BFA0E80C5037
:1002D00048BF0CC05DF804EB890028BF40F8042B30
:1002E00008BF704748BF20F8022B11F0804F18BF9D
:1002F00000F8012B7047704770477047754600F053
:100300002BF8AE4605006946534620F007008546A7
:1003100018B020B5FFF7B6FFBDE820404FF000064B
:100320004FF000074FF000084FF0000B21F00701DD
:10033000AC46ACE8C009ACE8C009ACE8C009ACE820
:10034000C0098D46704710B50446AFF300802046C3
:10035000BDE81040FFF781BF00487047440300200C
:1003600001491820ABBEFEE726000200704700BF1F
:10037000FEE7000000B58BB00121082001F062F912
:100380000121480601F06EF90320029002208DF849
:100390000C0000208DF80E0003208DF80D000120C8
:1003A0008DF80F0002A9304800F08CFE09220021D0
:1003B0002D4800F0CFFE092201212B4800F0CAFE93
:1003C00000208DF826008DF827008DF828000120E8
:1003D0008DF8290000208DF82A0001208DF82B00CF
:1003E00000208DF822008DF8230008208DF82400CD
:1003F00003208DF82500ADF8200008A91B4800F067
:1004000038FB00208DF81A008DF81B0001208DF8B4
:100410001C000020ADF81000ADF81200ADF814007B
:10042000ADF81600ADF8180001208DF81D0004A8E5
:1004300000F002FA14208DF8040000208DF8050069
:1004400001208DF806008DF8070001A800F08AFF52
:1004500001220221054800F003FB01221146034856
:1004600000F0FEFA0BB000BD000C0240006400403A
:1004700000B585B00221A84800F062FA00287DD0BE
:100480000421A54800F084F9A449A34800F064F9C8
:100490006A460021A04800F076FBA148B0F90000B0
:1004A000B0F57A7F06DA9E480088401C00B29C496D
:1004B000088009E09A48B0F90000B0F57A7F03DBC4
:1004C0004FF47A70964908800098A0F2012030B16C
:1004D000012820D002287DD003281BD1AAE0904813
:1004E000B0F90000B0F57A7F14DB0DF10B018D48F7
:1004F00000F078FD0DF10D018A48801C00F072FDBE
:100500000DF10F018748001D00F06CFD9DF81100F2
:100510008449C880FDE08248B0F90000B0F57A7FD8
:1005200019DA0DF10B01804800F05CFD0DF10D01B1
:100530007D48801C00F056FD0DF10F017A48001D2A
:1005400000F050FD9DF811007749C88008460088EA
:100550007649088051E074480088754908800DF19B
:100560000B01714800F03EFD0DF10D016E48801C3D
:1005700000F038FD0DF10F016B4800E0CAE0001DEE
:1005800000F030FD9DF811006749C8800846B0F9B9
:1005900000006749B1F90010401A41F270718842B9
:1005A00006DD64480088401E00B2624908800FE002
:1005B0005D48B0F900005E49B1F90010401A5E498B
:1005C000884205DA5B480088401C00B2594908801F
:1005D000554800E012E0B0F900105648B0F90000AC
:1005E00001EB40305149B1F90010401A00EE100AF9
:1005F000B8EEC00A514880ED000A8AE04848B0F9D8
:100600000000B0F57A7F14DB0DF10B014C4800F0CF
:10061000E9FC0DF10D014A48801C00F0E3FC0DF1EE
:100620000F014748001D00F0DDFC9DF81100444912
:10063000C8806EE03A48B0F90000B0F57A7F19DA68
:100640000DF10B013F4800F0CDFC0DF10D013D48CF
:10065000801C00F0C7FC0DF10F013A48001D00F0AE
:10066000C1FC9DF811003749C8800846008836490A
:1006700008804DE033480088344908800DF10B01B3
:10068000304800F0AFFC0DF10D012E48801C00F049
:10069000A9FC0DF10F012B48001D00F0A3FC9DF8F3
:1006A00011002849C8800846B0F900002749B1F96F
:1006B0000010401A41F27071884206DD244800881B
:1006C000401E00B2224908800FE01E48B0F9000029
:1006D0001E49B1F90010401A1749884205DA1C4832
:1006E0000088401C00B21A4908801648B0F9001072
:1006F0001748B0F9000001EB40301349B1F9001080
:10070000081A00EE100AB8EEC00A124880ED000A7E
:1007100000BF00BF05B000BD00640040080000320B
:10072000BC000020500000205E0000206600002079
:100730006A0000206800002090E8FFFF9C00002075
:100740006C0000207A00002082000020860000203B
:10075000840000209000002000220C4B994202D11E
:100760000023836111E0C1F3130201F000730BB1A8
:10077000C2600AE001F080630BB1026105E001F0A4
:1007800000630BB1826000E0426070477000F0309F
:10079000B1F5007F3AD00FDC202928D006DC0129F2
:1007A0001CD004291DD0082940D11DE0402921D0AA
:1007B000B1F5807F3AD126E0B1F5004F31D006DCAB
:1007C000B1F5806F25D0B1F5006F2FD124E0B1F5E0
:1007D000803F12D0B1F5003F28D111E0154A826068
:1007E00025E00822C26022E01022C2601FE0082239
:1007F00002611CE01022026119E00822426016E04A
:100800001022426013E00422426010E004224260A1
:100810000DE0042242600AE000228261042242606C
:1008200005E0002282610422426000E000BF00BFB8
:10083000704700000101010010B50021837A0122F8
:1008400002FA03F13D4A126842F001023B4B1A6082
:100850003A4A1C3212688A43384B1C331A60027BB6
:10086000CAB9364A0C3212688A43344B0C331A60C8
:100870004288C38842EA0343304A4032847A42F8CD
:1008800034300288838842EA03432C4A4032847A17
:1008900002EBC4025360027B012A19D1274A0C32B1
:1008A00012680A43254B0C331A604288038842EAD7
:1008B0000343224A4032847A42F83430C288838823
:1008C00042EA03431D4A4032847A02EBC402536079
:1008D000C27A3AB9194A121D12688A43174B1B1D76
:1008E0001A6006E0154A121D12680A43134B1B1DBD
:1008F0001A60028932B9114A143212688A430F4BC6
:1009000014331A600289012A06D10C4A1432126883
:100910000A430A4B14331A60427B012A06D1074A64
:100920001C3212680A43054B1C331A60034A1268D2
:1009300022F00102014B1A6010BD00000066004069
:1009400070B504460D46002660692840002871D025
:10095000B5F5807F5CD010DC082D35D006DC012D8C
:1009600020D0022D24D0042D72D127E0102D31D0BB
:10097000202D35D0402D6BD138E0B5F5004F60D03B
:1009800009DCB5F5007F49D0B5F5806F4CD0B5F5E1
:10099000006F5DD14FE0B5F5803F2DD0B5F5003F3C
:1009A00056D12FE0A0682D4900F0F8F9064651E035
:1009B000E068032100F0F2F906464BE0E068082108
:1009C00000F0ECF9064645E0E068102100F0E6F999
:1009D00006463FE02069032100F0E0F9064639E0D1
:1009E0002069082100F0DAF9064633E02069102179
:1009F00000F0D4F906462DE06068082100F0CEF939
:100A0000064627E06068102100F0C8F9064621E09C
:100A1000A069012100F0C2F906461BE0A06902218D
:100A200000F0BCF9064615E0A069042100F0B6F913
:100A300006460FE00FE0A069702100F0AFF906460E
:100A400008E06068042100F0A9F9064602E0FFE72B
:100A5000002600BF00E00026304670BD0101010005
:100A60001AB143690B43436102E043698B4343611D
:100A7000704730B5024600200023146824F00204B9
:100A80001460146844F00104146000E05B1C5468B6
:100A900004F001041CB94FF6FF74A342F6D1546868
:100AA00004F001040CB900206CE08C79012C04D115
:100AB000146844F08004146003E0146824F0800497
:100AC0001460CC79012C04D1146844F04004146003
:100AD00003E0146824F0400414600C7A012C04D163
:100AE000146844F02004146003E0146824F0200427
:100AF00014604C7A012C04D1146844F01004146082
:100B000003E0146824F0100414608C7A012C04D1E2
:100B1000146844F00804146003E0146824F0080426
:100B20001460CC7A012C04D1146844F004041460DD
:100B300003E0146824F0040414608C78A407CD78D2
:100B400044EA05640D7944EA05444D7944EA0554C4
:100B50000D886D1E2C43D461146824F001041460C8
:100B6000002300E05B1C546804F001041CB14FF644
:100B7000FF74A342F6D1546804F001040CB10020C4
:100B800000E0012030BD10B500F5D87303EB011370
:100B90001B6803F004031372137A53B900F5D8737A
:100BA00003EB01131B6840F2FF7404EA5353136014
:100BB00009E000F5D87303EB01131B686FF0604484
:100BC00004EAD303536000F5D87303EB01131B68E9
:100BD00003F00203537200F5D87303EB01135B6853
:100BE00003F00F03937200F5D87303EB01135B68F6
:100BF0001B0AD37400F5D87303EB01139B68D372FF
:100C000000F5D87303EB01139B681C0A147300F5FD
:100C1000D87303EB01139B681C0C547300F5D87355
:100C200003EB01139B681B0E937300F5D87303EB62
:100C30000113DB68D37300F5D87303EB0113DB6892
:100C40001C0A147400F5D87303EB0113DB681C0C49
:100C5000547400F5D87303EB0113DB681B0E937417
:100C600021B9C36843F02003C36003E0036943F084
:100C70002003036110BD10B502460020936803F005
:100C80008063B3F1806F00D110E0936803F00063DC
:100C9000B3F1006F01D1012008E0936803F08053A5
:100CA000B3F1805F01D1022000E00420042874D059
:100CB00002F5C07303EB00131B6803F0010402F597
:100CC000C07303EB00131C600B7A7BB94B7A0C8862
:100CD00043EA445302F5C07404EB00142468234330
:100CE00002F5C07404EB0014236010E00B7A4C682A
:100CF00043EAC4034C7A234302F5C07404EB0014A6
:100D00002468234302F5C07404EB001423608B7A3B
:100D100003F00F038B7202F5C07303EB00135B68E3
:100D200023F00F0402F5C07303EB00135C6002F5BF
:100D3000C07303EB00135B688C7A234302F5C07425
:100D400004EB001463608B7B1C064B7B44EA03447A
:100D50000B7B44EA0323CC7A234302F5C07404EBF3
:100D60000014A3608B7C1C064B7C44EA03440B7C80
:100D700044EA0323CC7B234302F5C07404EB001444
:100D8000E36002F5C07303EB00131B6843F001043A
:100D900002F5C07303EB00131C6010BD0246002077
:100DA00002EA01030BB1012000E00020704721B1ED
:100DB000026842F00102026003E0026822F00102D0
:100DC00002607047016821F00101016000210160AB
:100DD00041608160C1600161212141614A498842CD
:100DE00004D13D21484A103A91608CE046491831BF
:100DF000884205D14FF47461434A103A916082E011
:100E000041493031884205D14FF474113E4A103ABD
:100E1000916078E03C494831884205D14FF07461D7
:100E2000394A103A91606EE037496031884204D106
:100E30003649354A103AD16065E033497831884205
:100E400004D13349304A103AD1605CE02E499031E8
:100E5000884204D12F492C4A103AD16053E02A49E4
:100E6000A831884205D14FF03D51274A103AD16050
:100E700049E02949884204D13D21274A083A1160B6
:100E800041E025491831884205D14FF47461224A66
:100E9000083A116037E020493031884205D14FF4DB
:100EA00074111D4A083A11602DE01B4948318842EF
:100EB00005D14FF07461184A083A116023E01649D1
:100EC0006031884204D11149134A121F11601AE09F
:100ED00011497831884204D10D490F4A121F11601F
:100EE00011E00D499031884204D10A490A4A121F83
:100EF000116008E00849A831884204D14FF03D5103
:100F0000054A121F11607047106002403D0000202A
:100F1000400F002000003D201064024021B1026813
:100F200042F48022026003E0026822F48022026020
:100F3000704722B1036843F40023036003E00368B1
:100F400023F400230360016170470146486880B2C2
:100F50007047014600200A6802F400220AB101200D
:100F600000E000207047000010B500220268134B1B
:100F70001A40CC680B6823434C6923438C69234394
:100F8000CC6923430C6A23434C6A23438C6A234372
:100F90004C6B23438C6B23431A430260426922F05B
:100FA0000702D1E90B3423431A4342610B694360C2
:100FB0004B6883608B68C36010BD00003F801CF0ED
:100FC0000021016041608160C16001614161816116
:100FD000C161016241628162C162016341638163F7
:100FE000704770474A780B7842EA032212B20280B7
:100FF000704700001CB501213F2000F023FB20209A
:10100000009001208DF8040000208DF806000320D8
:101010008DF805006946284800F054F8202000901B
:1010200001208DF8040000208DF8060003208DF8C3
:1010300005006946214800F045F84FF480600090B3
:1010400001208DF8040000208DF8060003208DF8A3
:10105000050069461A4800F035F808200090012084
:101060008DF8040000208DF8060003208DF805009F
:101070006946124800F026F81020009001208DF8F3
:10108000040000208DF8060003208DF80500694655
:101090000A4800F017F80420009001208DF80400A1
:1010A00000208DF8060003208DF8050069460348EE
:1010B00000F008F81CBD00000000024000080240DB
:1010C00000140240F0B50A4600210023002400BFAE
:1010D0003DE0012505FA01F3156805EA03049C4289
:1010E00034D105684F000326BE40B543056015792D
:1010F0004E00B5400668354305601579012D02D0D4
:101100001579022D16D185684F000326BE40B543E0
:10111000856055794E00B5408668354385604568E1
:1011200001268E40B5434560456896798E40B6B23B
:1011300035434560C5684F000326BE40B543C560D2
:10114000D5794E00B540C6683543C560491C1029A5
:10115000BFD3F0BDF0B5002300244D07ED0E02FA19
:1011600005F3CE1000F1200555F826504E07F70E76
:101170000F26BE40B543CF1000F1200646F8275099
:10118000CE1000F1200555F8265045EA0304CE1094
:1011900000F1200545F82640F0BD02460020136905
:1011A0000B400BB1012000E00020704741837047E5
:1011B000018370474FF6FF71016000210171417199
:1011C0008171C171704700000148007870470000CC
:1011D0005601002000BFFEE710B5554800680828FA
:1011E0007EDB01205249086002F022F901F006FF7F
:1011F00050480068642190FBF1F04F4908604D4869
:1012000000680A2190FBF1F04C49086049480068E9
:101210000A2190FBF1F000EB800046490968A1EB40
:1012200040004749086043480068642807D101200E
:1012300041490860002041490860414908603D4833
:101240000068642802DA0A203B49086039480068CF
:101250000A2804DA0A203849086038490860394801
:101260000068642190FBF1F0374908603548006858
:101270000A2190FBF1F035490860324800680A21E4
:1012800090FBF1F000EB80002E490968A1EB4000D3
:101290002F4908602B480068642807D101202A499B
:1012A000086000202949086029490860254800682D
:1012B000642802DA0A2024490860224800680A28C3
:1012C00004DA0A2020490860204908601C4B1A787B
:1012D0001A4B1978184B187801F0D8FD1C4B00E018
:1012E00011E01A78194B1978174B187801F0EEFDB8
:1012F0001848006840F2DC51884204D01548006864
:10130000401C14490860144800680A280EDB114884
:10131000006840F2DC51884208D101200E49086083
:1013200001F0A4FF01F0A8FE01F0EEFD10BD0000E9
:1013300044000020300100202C000020300000205C
:101340003400002038010020380000203C0000203C
:1013500040000020280000204C00002000BFFEE7D5
:101360007047704770B5002100230F22C4781CB36A
:10137000174C246804F4E064C4F5E064C4F3072166
:10138000C1F10404E3B20A4144789C40E1B284789C
:10139000144021430C07210E0E4C0578615504784A
:1013A00004F01F050124AC4005786D11AD0005F176
:1013B000E025C5F8004109E0047804F01F05012488
:1013C000AC40054D0678761145F8264070BD00000A
:1013D0000CED00E000E400E080E100E010B52DED50
:1013E0000C8B0446B0EE408AF0EE608AB0EE419A73
:1013F000F0EE619A9FED470BB0EE40BAF0EE60BAA6
:101400009FED440BB0EE40CAF0EE60CA9FED410B79
:10141000B0EE40DAF0EE60DA53EC182B51EC190B19
:1014200002F0DEF941EC1A0B02F094F8A06194EDA1
:10143000060AD4ED000A20EE200A84ED030A94ED9A
:10144000040AD4ED060A94ED011A00EE810A84ED37
:10145000040A94ED040AD4ED090AB4EEE00AF1EEB0
:1014600010FA04DD94ED090A84ED040A10E094ED0D
:10147000040AD4ED090AF1EE600AB4EEE00AF1EED6
:1014800010FA05D294ED090AB1EE400A84ED040A7F
:1014900094ED070AD4ED060A30EE600AB1EE400A78
:1014A000D4ED020A20EE200A84ED050A94ED060A26
:1014B00084ED070A94ED030AD4ED040A30EE200A05
:1014C000D4ED050A30EE200A84ED080A94ED080AEE
:1014D000D4ED0A0AB4EEE00AF1EE10FA04DD94ED60
:1014E0000A0A84ED080A10E094ED080AD4ED0A0A0D
:1014F000F1EE600AB4EEE00AF1EE10FA05D294EDD6
:101500000A0AB1EE400A84ED080A94ED080ABDEC1F
:101510000C8B10BD000000000000000010B5044658
:101520002C212046FEF7C0FE10BD000010B530484B
:10153000FFF7F4FF9FED2F2ADFED2F1A9FED2F1AF3
:10154000DFED2F0AB6EE000A294800F06FF82D48AB
:10155000FFF7E4FF9FED2C2ADFED271A9FED271AF6
:10156000DFED270AB6EE000A264800F05FF82748AC
:10157000FFF7D4FF9FED1F2ADFED251AB7EE001A03
:10158000DFED240AB0EE080A204800F04FF82248A8
:10159000FFF7C4FF9FED172ADFED201AB7EE001A00
:1015A000DFED1C0AB0EE080A1B4800F03FF81C48AB
:1015B000FFF7B4FF9FED0F2ADFED151AB7EE001A03
:1015C000DFED140AB0EE080A154800F02FF81548B0
:1015D000FFF7A4FF9FED072ADFED131AB7EE001AFD
:1015E000DFED0C0AB0EE080A0E4800F01FF810BD3F
:1015F000D801002000409C460000C84200000000C6
:101600006F12833A3002002000803B455C020020CC
:101610000000FA440AD7233C880200200000484317
:10162000B4020020E002002000606A4680ED000A5B
:10163000C0ED010A80ED021AC0ED091A80ED0A2AF8
:101640007047704729B1064A12680243044B1A607A
:1016500004E0034A12688243014B1A60704700009D
:101660003038024029B1064A12680243044B1A601E
:1016700004E0034A12688243014B1A60704700007D
:101680004038024029B1064A12680243044B1A60EE
:1016900004E0034A12688243014B1A60704700005D
:1016A0002038024029B1064A12680243044B1A60EE
:1016B00004E0034A12688243014B1A60704700003D
:1016C0004438024029B1064A12680243044B1A60AA
:1016D00004E0034A12688243014B1A60704700001D
:1016E00024380240F0B50021002200240225002603
:1016F0000223324F3F6807F00C0121B1042905D0C5
:10170000082937D105E02E4F076036E02D4F0760DE
:1017100033E02A4F3F1F3F68C7F38056274F3F1FD4
:101720003F6807F03F036EB1264FB7FBF3F7DFF8D2
:101730008CC0ACF1040CDCF800C0CCF3881C07FBB7
:101740000CF40CE01E4FB7FBF3F7DFF870C0ACF100
:10175000040CDCF800C0CCF3881C07FB0CF4174F1A
:101760003F1F3F68C7F301477F1C7D00B4FBF5F7BF
:10177000076002E0124F076000BF00BF0F4F3F68D5
:1017800007F0F0010909104F7A5C0768D7404760FD
:101790000A4F3F6807F4E051890A0B4F7A5C4768AB
:1017A000D7408760054F3F6807F46041490B064FFB
:1017B0007A5C4768D740C760F0BD00000838024037
:1017C0000024F400001BB700000100202449B1F9F7
:1017D0000210A1F5806100EE101AB8EEC00ADFED2C
:1017E000210A20EE200ABDEEC00A10EE101A09B23E
:1017F0001D4A11801146B1F90010C82906DB1B49AA
:1018000091ED000A1A4981ED000A0AE01649B1F982
:10181000001011F1C80F04DC9FED160A144981ED88
:10182000000AC188A1F5806109B2134A11801146EE
:10183000B1F90010C82906DB104991ED000A1049E2
:1018400081ED000A0AE00C49B1F9001011F1C80F4E
:1018500004DC9FED080A0A4981ED000A7047000088
:101860000C0300206666E63E22030020980000205C
:1018700094000020000000004C010020A400002083
:10188000A000002000B5034603B900BD18785978C0
:1018900040EA0120C0F30A00334908805878C0109C
:1018A000997840EA4110C0F30A002F49488098789F
:1018B0008011D97840EA8100197940EA8120C0F38B
:1018C0000A002949888018794010597940EAC110E6
:1018D000C0F30A002449C8805879001180080872B2
:1018E0005879C0F3011048729879D97940EA0120FB
:1018F00000B21D494881187A597A40EA012001B2A4
:1019000019488181987AD97A40EA012001B21648B3
:10191000C181197B8174597BC174987BD97B40EA62
:10192000012011498882084600F056F8FFF74CFC68
:101930000E490870FFF748FC012804D002280DD09A
:1019400003280ED103E00848FFF740FF09E00649ED
:101950001431A1F10A00FFF703FD02E000F0C6F820
:1019600000BF00BF00BF90E70C030020E90000208B
:1019700070470000F0B585B004460D4616461F4678
:101980004FF40070009000208DF808008DF80900D9
:1019900008208DF80A00200A8DF80B00E1B28DF8BE
:1019A0000C10290A8DF80D10E9B28DF80E10310ACD
:1019B0008DF80F10F1B28DF81010390A8DF8111052
:1019C000F9B28DF8121069460248FFF754F905B0D4
:1019D000F0BD000000640040417A012902D1074AAD
:1019E00011700AE0417A032902D1044A117004E01F
:1019F000417A022901D1014A117070475601002035
:101A00000CB50020019000903448006840F480300C
:101A10003249086000BF3148006800F4003000908F
:101A20000198401C0190009818B90198B0F5A04F9A
:101A3000F1D12A48006800F4003010B10120009074
:101A400001E0002000900098012846D12348403052
:101A5000006840F08050214940310860204800680B
:101A600040F440401E4908601C48083000681B498B
:101A7000083108600846006840F4004008600846E5
:101A8000006840F4A05008601648091F0860081F4D
:101A9000006840F08070091F086000BF0F480068B0
:101AA00000F000700028F9D040F205600E4908608F
:101AB0000A480830006820F003000849083108602F
:101AC0000846006840F00200086000BF0348083084
:101AD000006800F00C000828F8D10CBD0038024066
:101AE000007000400C544007003C024000200349B5
:101AF0008880C8800249C880704700002203002007
:101B00004C0100207047000010B51548006840F4F3
:101B10007000134908601348006840F00100114943
:101B2000086000200F49083108600E4800680E491F
:101B300008400C4908600D48091D0860081F00682E
:101B400020F48020091F0860002006490C3108603D
:101B5000FFF756FF4FF0006001498039086010BD63
:101B600088ED00E000380240FFFFF6FE1030002450
:101B700010B50121880700F0B5FA18B101218807D6
:101B800000F092FA10BD000010B50121FE4800F0EF
:101B9000A9FA002872D00121FB4800F085FAFB4821
:101BA0000068401CF9490860F9480068401CF84981
:101BB0000860F8480068401CF6490860F64800686C
:101BC00088B1F6480068401CF4490860084600687F
:101BD00042F21071884206DB0020F0490860EE49AD
:101BE0000860EF490860EF48006888B1EE48006877
:101BF000401CED4908600846006842F210718842B6
:101C000006DB0020E8490860E6490860E74908600B
:101C1000E748006801286ED1E64890ED000AF7EE2B
:101C2000000A30EE200A80ED000A90ED000ADFED98
:101C3000E20AB4EEE00AF1EE10FA03D840F698009A
:101C4000DE490860DB4890ED000ADFEDDD0AB4EE06
:101C5000E00AF1EE10FA12DBDA4890ED000AB5EE78
:101C6000C00AF1EE10FA0AD140F69800D349086094
:101C7000B7EE000AD34880ED000A63E1F8E1CD48F1
:101C800090ED000ADFEDD00AB4EEE00AF1EE10FAB2
:101C900013DBCC4890ED000AF7EE000AB4EE600AC0
:101CA000F1EE10FA09D14FF47A70C4490860B0EE31
:101CB000000AC44880ED000A44E1BE4890ED000AE5
:101CC000DFEDC20AB4EEE00AF1EE10FA14DBBD4813
:101CD00090ED000AF0EE000AB4EE600AF1EE10FAA0
:101CE0000AD140F69800B5490860B0EE080AB54838
:101CF00080ED000A26E140E1AE4890ED000ADFEDFC
:101D0000B40AB4EEE00AF1EE10FA13DBAD4890ED40
:101D1000000AF0EE080AB4EE600AF1EE10FA09D1FA
:101D20004FF47A70A5490860B1EE000AA54880ED2D
:101D3000000A07E19F4890ED000ADFEDA60AB4EE25
:101D4000E00AF1EE10FA13DB9E4890ED000AF1EE86
:101D5000000AB4EE600AF1EE10FA09D140F69800DC
:101D600096490860B1EE040A964880ED000AE9E061
:101D7000904890ED000ADFED980AB4EEE00AF1EE2B
:101D800010FA13DB8F4890ED000AF1EE040AB4EE6E
:101D9000600AF1EE10FA09D14FF47A7087490860B1
:101DA000B1EE080A874880ED000ACBE0814890ED4B
:101DB000000ADFED8A0AB4EEE00AF1EE10FA13DB56
:101DC000804890ED000AF1EE080AB4EE600AF1EEE8
:101DD00010FA09D140F6980078490860B1EE0C0A73
:101DE000784880ED000AADE0724890ED000ADFED22
:101DF0007C0AB4EEE00AF1EE10FA13DB714890EDC4
:101E0000000AF1EE0C0AB4EE600AF1EE10FA09D104
:101E10004FF47A7069490860B2EE000A694880EDB3
:101E2000000A8FE0634890ED000ADFED6E0AB4EE21
:101E3000E00AF1EE10FA13DB624890ED000AF2EED0
:101E4000000AB4EE600AF1EE10FA09D140F69800EB
:101E50005A490860B2EE020A5A4880ED000A71E061
:101E6000544890ED000ADFED600AB4EEE00AF1EEAE
:101E700010FA13DB534890ED000AF2EE020AB4EEBA
:101E8000600AF1EE10FA09D14FF47A704B490860FC
:101E9000B2EE040A4B4880ED000A53E0454890ED4D
:101EA000000ADFED520AB4EEE00AF1EE10FA13DB9D
:101EB000444890ED000AF2EE040AB4EE600AF1EE36
:101EC00010FA09D140F698003C490860B2EE060AC3
:101ED0003C4880ED000A35E0364890ED000ADFED21
:101EE000440AB4EEE00AF1EE10FA13DB354890ED47
:101EF000000AF2EE060AB4EE600AF1EE10FA09D119
:101F00004FF47A702D490860B2EE080A2D4880ED32
:101F1000000A17E0274890ED000ADFED360AB4EE1C
:101F2000E00AF1EE10FA0DDB264890ED000AF2EE21
:101F3000080AB4EE600AF1EE10FA03D140F69800F8
:101F40001E4908601B4890ED000ADFED2B0AB4EE35
:101F5000E00AF1EE10FA10DB4FF47A7017490860CE
:101F60009FED260A174880ED000A9FED240A1148CC
:101F700080ED000A02200E4908602148006801280F
:101F800076D1204840E000000004004044000020DA
:101F9000480000204C0000204001002000000020EC
:101FA000CC0000204801002004000020D4000020C4
:101FB00020010020080000200000C8423C0800402A
:101FC0000080BB450C00002000803B4600A08C46F2
:101FD0000080BB460060EA4600A00C470010244782
:101FE00000803B4700F0524700606A4700E88047A6
:101FF00000A08C470058984700409C470000000014
:10200000280100201000002090ED000AF7EE000AE1
:1020100030EE200A80ED000A90ED000ADFED150A8F
:10202000B4EEE00AF1EE10FA03DB4FF47A701249D5
:102030000860124890ED000ADFED110AB4EEE00AE4
:10204000F1EE10FA14DB1FED130A80ED000A0020F8
:102050000C4908601FED170A0B4880ED000A1FEDC0
:10206000190A0A4880ED000A4FF47A7002490860A4
:1020700010BD000000204B463C080040100000202E
:10208000007C124828010020A000002094000020BD
:1020900021B1028842F08002028004E002884FF6FB
:1020A0007F731A4002807047CA430282704721B191
:1020B000028842F00102028004E002884FF6FE73BB
:1020C0001A400280704731B1B0F8442042F4004217
:1020D000A0F8442005E0B0F84420C2F30E02A0F8B6
:1020E0004420704730B50246002000230024158AA2
:1020F00005EA0103958905EA010413B10CB1012039
:1021000000E0002030BD1AB183890B43838102E0D7
:1021100083898B438381704770B50024002200239C
:10212000058C4FF6FE7635400584028C8388048B3F
:102130004FF68F752C40B51E2C400D882C43751E14
:102140002A408D892A434D882A43104DA84202D047
:102150000F4DA84213D14FF6F7752A40CD892A4377
:102160004FF6FB752A408D882A434FF6FF652B40BA
:102170004FF6FF552B400D8A2B434D8A2B4383800E
:1021800004838D684563028470BD00000000014037
:10219000000401400A460021018B4FF6F7731940F5
:1021A000114301837047000070B500240022002312
:1021B000058C4FF6EF7635400584028C8388048BBE
:1021C00048F6FF752C404FF6FF452C400D884FF622
:1021D000FF7606EA05252C434FF6DF752A408D89E8
:1021E00006EA05152A434D8806EA05152A43154DCA
:1021F000A84202D0144DA8421DD14FF67F752A4047
:10220000CD894FF6FF7606EA05152A434FF6BF75CE
:102210002A408D8806EA05152A434FF6FF352B40E4
:102220004FF2FF752B400D8A06EA85052B434D8A38
:1022300006EA85052B43838004838D6885630284C9
:1022400070BD000000000140000401400A4600216A
:10225000018B4FF2FF7319404FF6FF7303EA02231D
:10226000194301837047000070B500240022002349
:10227000058C4FF6FF6635400584028C8388848B7D
:102280004FF68F752C404FF6FC752C400D882C4373
:102290004FF6FF552A408D894FF6FF7606EA052551
:1022A0002A434D8806EA05252A43154DA84202D047
:1022B000144DA8421DD14FF2FF752A40CD894FF62B
:1022C000FF7606EA05252A434FF6FF352A408D881A
:1022D00006EA05252A434EF6FF752B404DF6FF759D
:1022E0002B400D8A06EA05152B434D8A06EA051593
:1022F0002B43838084838D68C563028470BD000096
:1023000000000140000401400A460021818B4FF685
:10231000F773194011438183704700210180418088
:10232000818081608181C18101824182704700008A
:1023300000220288184B98420ED0184B98420BD0BE
:10234000B0F1804F08D0164B984205D0154B9842FB
:1023500002D0154B984204D14FF68F731A404B8828
:102360001A43124B984207D0114B984204D04FF6B3
:10237000FF431A400B891A4302804B68C3620B88E3
:102380000385054B984202D0044B984201D18B7AC9
:10239000038601238382704700000140000401404E
:1023A0000004004000080040000C00400010004005
:1023B000001400404FF0FF31416000210180018195
:1023C000418081727047000070B5044600251FE00F
:1023D00020211148FEF7EAFE04F0800020B1202100
:1023E0000E48FEF7E5FE03E020210C48FEF7DEFE76
:1023F0006006040E20210848FEF7D8FE202106487A
:10240000FEF7D6FE20210448FEF7D0FE681CC5B2B8
:10241000082DDDDB70BD0000000002400008024016
:1024200070B5044600251FE008211148FEF7BEFEE6
:1024300004F0800020B110210D48FEF7B9FE03E042
:1024400010210B48FEF7B2FE6006040E0821084872
:10245000FEF7ACFE08210648FEF7AAFE0821044854
:10246000FEF7A4FE681CC5B2082DDDDB70BD0000C0
:102470000008024000B58FB001210846FFF7F2F8CE
:102480001C208DF82C0002208DF82D008DF82E00D8
:1024900001208DF82F000BA8FEF764FFA720ADF8F0
:1024A00030004FF47A700D900020ADF83800ADF890
:1024B00032000CA94FF08040FFF73AFF0121880756
:1024C000FFF7E6FD01218807FFF7EEFD0122114627
:1024D0009007FFF718FE01218807FFF7E8FD08A81D
:1024E000FFF768FF03A8FFF718FF01210846FFF771
:1024F000B9F801210846FFF7A5F80F200190022046
:102500008DF8080003208DF8090000208DF80A00DE
:1025100001208DF80B0001A93248FEF7D3FD0122FE
:1025200000213048FEF716FE012211462D48FEF725
:1025300011FE012202212B48FEF70CFE012203218D
:102540002848FEF707FE5420ADF8200044F620602E
:1025500009900020ADF82800ADF8220008A94FF03E
:102560008040FFF7E5FE6020ADF80C000020ADF8DC
:102570001000ADF818000820ADF81A004001ADF8C1
:102580001C000020ADF81E000120ADF80E00002058
:10259000059003A94FF08040FFF7BEFD0821C80653
:1025A000FFF7F8FD03A94FF08040FFF7FDFD08217C
:1025B000C806FFF74BFE01218807FFF784FD0121C4
:1025C0008807FFF765FD01218807FFF770FD40F6DA
:1025D00066004FF0804148634FF4FA6088630FB0A3
:1025E00000BD0000000002401FB501210220FFF7DE
:1025F00039F81D208DF8000003208DF801008DF8BA
:10260000020001208DF803006846FEF7ABFEA7200C
:10261000ADF80400642002900020ADF80C00ADF885
:10262000060001A90A48FFF783FE01210848FFF7C9
:102630002FFD01210648FFF737FD0122114604480E
:10264000FFF761FD01210248FFF731FD1FBD0000CA
:102650000004004000B58BB008A8FFF7ABFE03A84C
:10266000FFF75BFE01210420FEF7FCFF012108209B
:10267000FEF7E8FF4FF48040019002208DF808003B
:1026800003208DF8090000208DF80A0001208DF844
:102690000B0001A92748FEF715FD02220E2125484F
:1026A000FEF758FD5420ADF8200044F62060099054
:1026B0000020ADF82800ADF8220008A91E48FFF759
:1026C00037FE6020ADF80C000020ADF81000ADF82A
:1026D00018000820ADF81A004001ADF81C000020D9
:1026E000ADF81E000120ADF80E000020059003A9F2
:1026F0001148FFF759FD08210F48FFF7A7FD03A96F
:102700000D48FFF7B1FD08210B48FFF7FDFD012142
:102710000948FFF7D8FC01210748FFF7B9FC012160
:102720000548FFF7C4FC4FF47A7003493C31086058
:102730000BB000BD000C02400008004010B596B080
:10274000044601210220FEF77DFF01218805FEF7E6
:1027500079FF01211020FEF7A5FF0722114642480C
:10276000FEF7F8FC14A8FEF725FD80201490022047
:102770008DF8540000208DF8550001208DF8570089
:1027800014A93948FEF79EFC384800F041F910A81A
:1027900000F075FA10940020ADF84400ADF8460042
:1027A0004FF48060ADF848000420ADF84A000020E6
:1027B000ADF84C0010A92D4800F0F2F9012240219B
:1027C0002A4800F01CF92A48FEF7FCFA6846FEF792
:1027D000F7FB4FF0006000902448001D0190254851
:1027E0000290002003901E200490002005904FF4DA
:1027F000806006900020079008904FF48070099048
:1028000000020A9000200B900C900D900E906946EB
:102810001748FEF7A9FB002216491E311448FEF79F
:1028200088FB01211248FEF779FB01211048FEF7D1
:10283000BEFA25208DF83C0000208DF83D008DF873
:102840003E0001208DF83F000FA8FEF78BFD01220E
:1028500040F22441054800F07DF90121034800F0D1
:10286000C2F816B010BD0000000402400010014084
:10287000406402407001002010B53948007820B94A
:1028800038480068401C3749086036480068B0F591
:10289000167F02DB01203249087031480078012898
:1028A00004D130480068401E2E4908602D48006859
:1028B000012802DC00202A49087040F224412A48FD
:1028C00000F01EF9002849D0274800882648808853
:1028D0002648FEF73EFB00BB00212448FEF767FABE
:1028E0002248FEF732FBC0F11E00214908601E207D
:1028F0001E49091D0860081F006840F40020091FD8
:10290000086001211948FEF752FA19480068122898
:1029100024D11848FEF7B6FF20E000211348FEF747
:1029200046FA1248FEF711FBC0F11E00104908607C
:102930001E200E49091D0860081F006820F40020B1
:10294000091F086001210948FEF731FA08480068AC
:10295000122803D107481E30FEF794FF10BD000077
:1029600014000020EC0000200010014040640240F0
:10297000180000207001002010B540F225510848D1
:1029800000F0BEF8012809D140F22551044800F0BA
:102990000BF8034800F06EF90249087010BD000002
:1029A000001401401C00002010B50022002340F656
:1029B0006A14A14200D100BF0A1201249440A3B2BC
:1029C000DC43048010BD10B502460020108A20F4BC
:1029D00070600B884C8823438C882343CC88234326
:1029E0001843108210BD21B1828942F400528281C5
:1029F00004E082894DF6FF731A40828170471AB154
:102A0000838A0B43838202E0838A8B4383827047ED
:102A100010B504463248844208D101211020FEF747
:102A200051FE00211020FEF74DFE57E02D48844254
:102A300009D101214804FEF725FE00214FF40030A2
:102A4000FEF720FE4AE02848844209D1012188048B
:102A5000FEF718FE00214FF48020FEF713FE3DE044
:102A60002248844209D10121C804FEF70BFE00214F
:102A70004FF40020FEF706FE30E01D48844209D1E5
:102A800001210805FEF7FEFD00214FF48010FEF73E
:102A9000F9FD23E01748844208D101212020FEF7E8
:102AA00011FE00212020FEF70DFE17E0124884429F
:102AB00009D101218807FEF7E5FD00214FF0804094
:102AC000FEF7E0FD0AE00D48844207D101214005F0
:102AD000FEF7D8FD00216005FEF7D4FD10BD000013
:102AE000001001400044004000480040004C0040FD
:102AF000005000400014014000780040007C00407D
:102B000070B50246002400230025002040F66A1616
:102B1000B14200D100BFC1F3421501F01F030126ED
:102B200006FA03F3012D02D19689334006E0022D07
:102B300002D1168A334001E0968A33400C120126F6
:102B400006FA04F41688344013B10CB1012000E0F9
:102B5000002070BDF0B503460024002600250020AB
:102B600040F66A17B94200D100BF1846C1F34214BB
:102B700001F01F06012707FA06F5012C01D10C30E0
:102B800004E0022C01D1103000E014301AB10768C3
:102B90002F43076002E00768AF430760F0BD000005
:102BA0002DE9FF4705460E460024A14600BFA0467A
:102BB000B08900B100BF2C8A24F44054F08804434B
:102BC0002C82AC8941F20C608443B088318908437F
:102BD000718908430443AC81AC8A24F44074B08901
:102BE0000443AC826846FEF77DFD2048854202D052
:102BF0001F48854202D1DDF80C9001E0DDF8089015
:102C0000A88900F4004040B109EBC90000EB0910AD
:102C100031684900B0FBF1F707E009EBC90000EBB0
:102C2000091031688900B0FBF1F76420B7FBF0F0C0
:102C300004012009642101FB1078A88900F40040F8
:102C400040B1322000EBC800B0FBF1F000F007000B
:102C5000044308E0322000EB08106421B0FBF1F0DF
:102C600000F00F0004432C81BDE8FF8700100140F5
:102C70000014014001468888C0F3080070474FF4F3
:102C80001651016000218180C18001810C214181A8
:102C900000218181704700BFFEE7000010B58AB0B7
:102CA000044601212020FEF7FDFC01214020FEF713
:102CB000C9FC47208DF80C0002208DF80D00032080
:102CC0008DF80E0001208DF80F0003A8FEF74AFBD7
:102CD000082209212D48FEF73DFA08220E212B4833
:102CE000FEF738FA4FF48040019002208DF808007A
:102CF0008DF8090000208DF80A0001208DF80B00E6
:102D000001A92248FEF7DEF94FF40070019002207D
:102D10008DF808008DF8090001208DF80A000020C8
:102D20008DF80B0001A91948FEF7CCF94FF4E130FA
:102D300006900020ADF81C00ADF81E00ADF8200094
:102D4000ADF824000C20ADF822000020ADF81000F2
:102D5000ADF812004FF40070ADF814000020ADF88B
:102D6000160006A90A48FFF71BFF04A90848FFF749
:102D70002AFE012240F225510548FFF7EBFE012112
:102D80000348FFF730FE0AB010BD000000180240F3
:102D9000001401401748006888B91748006820B936
:102DA00016480068C01D1549086014480068144999
:102DB0000968884203DB124800681049086011481E
:102DC000007840B910480068012804D10F48006815
:102DD000401C0E4908600D480068642805DB01208E
:102DE0000449086000200549086006480078064943
:102DF00008607047A800002040010020CC0000209F
:102E000088000020C00000202C010020300100209C
:102E10001748006888B91748006820B91648006844
:102E2000C01D1549086014480068144909688842A3
:102E300003DB12480068104908601148407840B927
:102E400010480068012804D10F480068401C0E4952
:102E500008600D480068642805DB0120044908600B
:102E60000020054908600648407806490860704718
:102E7000AC00002048010020D40000208C0000207D
:102E8000C0000020340100203801002070B5044645
:102E90000D4616460B49085DFFF796FA0949485D4D
:102EA000FFF792FA0749885DFFF78EFA4FF48061C9
:102EB0000548FEF77BF94FF480610348FEF778F987
:102EC00070BD00001D0000200014024070B50446D3
:102ED0000D4616460A49085DFFF7A2FA0849485D03
:102EE000FFF79EFA0649885DFFF79AFA0421054824
:102EF000FEF75CF904210348FEF75AF970BD0000A3
:102F00001D000020000802402B48007870B92B48B3
:102F1000006858B92A480068401C294908600846DA
:102F20000068C82802DB01202449086023480068A3
:102F3000012805D12348006810B901202149086003
:102F40002048006802281AD11F4890ED000A1F4847
:102F500080ED000A1C4890ED000ADFED1D0A30EEFE
:102F6000600A1C48D0ED000AB4EEE00AF1EE10FA57
:102F700005D81948006810B901201749086016489B
:102F80000068012816D10C48407898B940F698009E
:102F900012490860124890ED000A124880ED000ABC
:102FA000002006490860074908600B4908600120B5
:102FB0000D49086070470000C6000020180100207D
:102FC0001C01002020010020980000209400002017
:102FD0000060EA4690000020240100203C080040E8
:102FE000A4000020A00000202801002001460029A4
:102FF00000DB01E0484201467047000010B54FF485
:1030000080510648FEF7C9F8054908704FF4005191
:103010000248FEF7C2F80249487010BD000C024099
:10302000C60000201CB5012140F23F10FEF70AFB4C
:103030004FF48050009000208DF8040003208DF89C
:10304000050001208DF8070069460A48FEF73AF8A6
:103050004FF40050009000208DF8040003208DF8FC
:10306000050001208DF8070069460248FEF72AF89E
:103070001CBD0000000C024010B5FFF78BFE32486B
:10308000807810B13048C078C8B930480068401C1A
:103090002E49086008460068642820DB00202C497F
:1030A00008602C49086001202B49086064202749EA
:1030B00008604FF416604FF0804188630FE02648A7
:1030C0000068012804D100202349086023490860D2
:1030D0004FF4FA608106886300201C490860FFF7FE
:1030E00097FE1948007910B117484079C0B91C48BB
:1030F0000068401C1A49086008460068642822DB02
:103100000020184908601849086001201749086024
:1031100064201349086040F6C4100107486312E0B8
:1031200012480068012806D10020104908601049A3
:1031300008600D49086040F666004FF08041486322
:1031400000200749086010BDC000002010010020C9
:10315000CC00002030010020B0000020A80000209A
:1031600014010020D400002038010020B400002009
:10317000AC00002000B523480068FFF737FF024687
:103180002149B1F90200FFF731FF101A1F49086009
:103190001F480068A0F5FA600968884205DC1D48F0
:1031A000006810B901201B4908601A48006801280E
:1031B00004D1174800684042124908601648006868
:1031C000FFF714FF02461549B1F90200FFF70EFFA1
:1031D000101A1349086013480068A0F5FA600968DE
:1031E000884205DC1048006810B901200E490860CB
:1031F0000D480068012804D10A4800684042064989
:10320000086000BDCC000020500000203C010020E0
:103210008800002040010020D40000206C00002025
:10322000440100208C00002048010020FEF76CFCC7
:10323000FDF7A0F8FFF71EF9FFF7D6F9FFF70AFA36
:103240000948FFF77BFAFEF771F94FF4E130FFF719
:1032500025FD00F019F9FDF7CDFEFFF7E3FE01E0D3
:10326000FDF7BAFFFCE70000A08601002DE9F04160
:103270002DED048B5C48006800F09CFB41EC180BC2
:103280005A48006800F096FB41EC190BB0EE481A62
:10329000F0EE681AB0EE490AF0EE690A5448FEF7FB
:1032A0009DF8BDEEC00A534880ED000A5248006800
:1032B00000F080FB41EC180B5048006800F07AFBEE
:1032C00041EC190BB0EE481AF0EE681AB0EE490A5C
:1032D000F0EE690A4A48FEF781F8BDEEC00A494897
:1032E00080ED000A0068404200F00EFA41EC180B35
:1032F0004549B1F9020000F007FA41EC190BB0EEB4
:10330000481AF0EE681AB0EE490AF0EE690A3F4832
:10331000FEF764F8BDEEC00A10EE100A04B23C4895
:103320000068404200F0F0F941EC180B3949B1F95E
:10333000020000F0E9F941EC190BB0EE481AF0EE8A
:10334000681AB0EE490AF0EE690A3348FEF746F80B
:10335000BDEEC00A10EE100A05B22648006800F063
:10336000D3F941EC180B2D49B1F9020000F0CCF96A
:1033700041EC190BB0EE481AF0EE681AB0EE490AAB
:10338000F0EE690A2648FEF729F8BDEEC00A10EEF5
:10339000100A06B223480068404200F0B5F941EC3B
:1033A000180B2149B1F9020000F0AEF941EC190BFC
:1033B000B0EE481AF0EE681AB0EE490AF0EE690A6B
:1033C0001A48FEF70BF8BDEEC00A10EE100A07B25D
:1033D00023462A4631463846FEF7CCFAFFF7CAFEA6
:1033E000BDEC048BBDE8F081A00000209C00002013
:1033F000D8010020D0000020940000209000002080
:1034000030020020D80000207A000020E0020020D6
:10341000D40000206C000020B40200205E000020D8
:1034200088020020CC000020500000205C02002018
:1034300010B504211148FDF7B0FE11490870802134
:103440000E48FDF7AAFE0E49487040210B48FDF7D3
:10345000A4FE0B49887020210848FDF79EFE08490C
:10346000C87008210748FDF798FE05490871042136
:103470000448FDF792FE0249487110BD0020024049
:10348000C0000020000002401CB5012140F23F10A6
:10349000FEF7D8F80420009000208DF804000320E7
:1034A0008DF8050001208DF8070069462748FDF7D3
:1034B00009FE8020009000208DF8040003208DF884
:1034C000050001208DF8070069462048FDF7FAFD48
:1034D0004020009000208DF8040003208DF80500A6
:1034E00001208DF8070069461848FDF7EBFD202004
:1034F000009000208DF8040003208DF805000120C5
:103500008DF8070069461148FDF7DCFD4FF4806037
:10351000009000208DF8040003208DF805000120A4
:103520008DF8070069460A48FDF7CCFD042000909D
:1035300000208DF8040003208DF8050001208DF88F
:10354000070069460248FDF7BDFD1CBD0020024092
:103550000000024021F00042A2F16052B2F5801F4B
:1035600001F0004328BFD2F17F6C0BD95FEA001C49
:1035700043EAC20242EB507018BF704728BF20F0E8
:1035800001007047B2F5801FBCBF184670474FEA74
:10359000410C1CF5001F02D2084600F081BA70B53C
:1035A00000F0C9F800000089FFF7F6BF4FF00040B7
:1035B000A0F580007047000010B591EA030F48BFE6
:1035C00083F0004300F11481841A71EB030C05D2DF
:1035D000121943EB0C03001B61EB0C01DFF824E133
:1035E0004FEA1154A4EB135C1EEA430F18BF9EEA86
:1035F000445F73D023EA0E03DCF1200E21EA04516C
:1036000043F4801332D322FA0CFE10EB0E0023FA9F
:103610000CFE41EB0E01CCF1200E03FA0EFE10EB76
:103620000E0051F10001B1F5801FCCF1200E32D215
:1036300001EB045112FA0EF2BDE8104058BF70477A
:10364000401C38BF5FEA420218BF7047002814BF11
:1036500020F0010041F100014FEA410313F5001F82
:1036600038BF7047A1F1C04100F0B3B8012A43EB65
:103670000302ACF1200CDCF11F0E32BF4FF0000E44
:1036800023FA0CF310EB030041EB0451B4EB115F90
:10369000D0D0A1EB045101F5801149085FEA300058
:1036A00001EB04510ED350F1000038BF12FA0EFEA8
:1036B00008D1BDE81040C9E7401C38BF5FEA4202AC
:1036C000CAD1C3E7BDE810404FEA410313F5001F1C
:1036D00038BF7047A1F1C04100F07BB89EEA445F5B
:1036E00008D011EA5E0FBDE8104004BF01F00041B0
:1036F00000207047BDE8104070B500F01CF800BF16
:1037000064FBBE3E0000E0FF10F0004248BF4042B4
:10371000B0FA80F310FA03F10AD0C3F11D0303F5E8
:1037200080634FEA415002EB035202EBD121704714
:103730004FF0000070470EF1020E2EF0030E5EF8FF
:10374000046B364205D4012A43EB030515F5001F2F
:1037500012D8012841EB010C1CF5001F0CD80ED12A
:103760004FEAD17C15F5001F0CEB4C0C0CF1020C50
:1037700008BF4CEBD37C04E04FF0080C01E04FEAAB
:10378000D37C0CEB4C0526FA05F606F00706B6F1DD
:10379000040C06D20EEB860CBDE870404CF0010C18
:1037A0006047DFE80CF0090B02024FF000414FF0D8
:1037B0000000A1F5002170BD19461046012851EB0B
:1037C000010418BFD4F5001484BF002001F00041AB
:1037D00070BD0808A0F500114FEA310170470000E4
:1037E00010B591EA030F48BF83F000433FF5ECAEFC
:1037F000841A71EB030C07D212198CF0004C43EBC6
:103800000C03001B61EB0C01DFF8A4E14FEA11543B
:10381000A4EB135C1EEA430F18BF9EEA445F00F05E
:10382000B08023EA6E03524221EA0451C3EB6E03D7
:1038300038BF5B1EDCF1200E25D322FA0CFE10EB04
:103840000E0043FA0CFE41EB0E01CCF1200E03FA00
:103850000EFE10EB0E0051F10001CCF1200E29D428
:1038600012FA0EF201EB0451BDE8104058BF704748
:10387000401C1CBFB2F1004F704700280CBF491C10
:1038800020F00100704712EB020E43EB030218BF59
:103890004FF0010E4EEA4202ACF1200CDCF11E0E9C
:1038A00054D943FA0CFE10EB0E0051F1FF31CCF16C
:1038B0001E0ED5D50EF1010E12FA0EFE404141EB5F
:1038C000010101EB445C5FEA5C5C10D910EBDE7037
:1038D00001EB045138BFBEF1004FBDE8104018BFE6
:1038E000704700280CBF491C20F00100704730D2FF
:1038F0004FEAD42C11F5001124F400641BD0B1FA66
:1039000081F20B3AA41AA41ED2F12003914030FA9E
:1039100003F31943904001EBCC71002C01EB0451EF
:10392000BDE81040A8BF704701F1C0414FF0000052
:1039300001F000417047B0FA80F310FA03F100D1B2
:1039400010BDE41A173C4805C90AE4E701EB04512D
:1039500010BD491001EB0451BDE810404FEA3000A2
:1039600002E04FF0000170474A0008BF0042F8D063
:10397000B2F5001F28BF704701F000414FF0000072
:1039800070479EEA445F07D011EA5E0FBDE8104021
:1039900004BF002100207047BDE8104070B5FFF75C
:1039A000CAFE00BF40DFF63E83F00041104670477C
:1039B0000000E0FF43004FEAD30C4FEA3C0C4340C9
:1039C0001FBF40070CF1605113F0FE4F70471CF011
:1039D000006F03D100200CF0004170470CF0004351
:1039E00043EA507010B540EACC0000F00EF800BF7A
:1039F000000000924FEA0001FFF7EBBE4FF00041DC
:103A00004FF00000A1F5002170470EF1020E2EF0DC
:103A1000030E5EF8044B244204D44FEA4102B2F193
:103A20007F4F11D84FEA4003B3F17F4F0CD80ED12E
:103A30004FEAD07CB2F17F4F0CEB4C0C0CF1020C36
:103A400008BF4CEBD17C04E04FF0080C01E04FEADA
:103A5000D17C0CEB4C0324FA03F404F00704B4F11A
:103A6000040C06D20EEB840CBDE810404CF0010CA7
:103A70006047DFE80CF0070802024FF00040A0F5B5
:103A8000800010BD0846420018BFD2F1807288BF86
:103A900000F0004010BD4FF04070E1EE100A70479A
:103AA000FF2141EAD050C00570470000CC3A000821
:103AB0000000002070010000C4010008103B000855
:103AC000700100203808000020020008011D100BC2
:103AD0003F065B4F666D7D277F6F021B01291C69C6
:103AE0000401384B7017048195807F87498B2474BB
:103AF0000CB976012AA9A4E93A2D01020304040DA8
:103B00003E06070809C8595249010911780000000A
:040000050800018965
:00000001FF
