:020000040800F2
:100000004808002089010008250D0008BD0C0008E3
:10001000210D0008E10400089B100008000000000A
:10002000000000000000000000000000D90D0008E2
:10003000A50B0008000000003D0D0008ED0E0008B3
:10004000A3010008A3010008A3010008A301000800
:10005000A3010008A3010008A3010008A3010008F0
:10006000A3010008A3010008A3010008A3010008E0
:10007000A3010008A3010008A3010008A3010008D0
:10008000A3010008A3010008A3010008A3010008C0
:10009000A3010008A3010008A3010008A3010008B0
:1000A000A3010008A3010008A3010008A3010008A0
:1000B000510F0008A3010008750F0008A3010008F4
:1000C000A3010008A3010008A3010008A301000880
:1000D000A3010008B50F0008A3010008A301000850
:1000E000A3010008A3010008A301000800F002F822
:1000F00000F03AF80AA090E8000C82448344AAF188
:100100000107DA4501D100F02FF8AFF2090EBAE885
:100110000F0013F0010F18BFFB1A43F0010318473B
:10012000981B0000B81B0000103A24BF78C878C1A3
:10013000FAD8520724BF30C830C144BF04680C60ED
:10014000704700000023002400250026103A28BF35
:1001500078C1FBD8520728BF30C148BF0B60704739
:100160001FB51FBD10B510BD00F038F81146FFF7E0
:10017000F7FF01F0C3F800F056F803B4FFF7F2FF01
:1001800003BC00F08CFF0000094880470948004785
:10019000FEE7FEE7FEE7FEE7FEE7FEE7FEE7FEE737
:1001A000FEE7FEE704480549054A064B7047000094
:1001B000F10E0008ED000008480200204808002069
:1001C000480400204804002070477047704770477B
:1001D0007047000000487047E40100207546FFF7B3
:1001E000F9FFAE4605006946534620F007008546F4
:1001F00018B020B5FFF7D6FFBDE820404FF000064D
:100200004FF000074FF000084FF0000B21F00701FE
:10021000AC46ACE8C009ACE8C009ACE8C009ACE841
:10022000C0098D4670470446AFF300802046FFF7B3
:10023000A4FF21B1826842F00102826003E082687B
:1002400022F001028260704721B1826842F480721C
:10025000826003E0826822F480728260704700004E
:1002600010B504461248844208D10121401500F01F
:10027000A3FD0021601500F09FFD17E00D488442AA
:1002800008D10121001500F097FD0021201500F094
:1002900093FD0BE00848844208D10121C80300F017
:1002A0008BFD00214FF4004000F086FD10BD0000E2
:1002B0000024014000280140003C0140014600208C
:1002C0008A6802F004020AB1012000E000207047B1
:1002D00030B502460020002350680F4C20400D79B5
:1002E0000C6844EA05242043506090680B4C204081
:1002F000D1E902542C434D7944EA450420439060EF
:10030000D06A20F470000C7C641EE4B2234340EAFF
:100310000350D06230BD0000FFFEF0FFFDF7F1FF9B
:10032000F0B504460D4600200021092D11DDE068DE
:10033000A5F10A0606EB4607072606FA07F18843E9
:10034000A5F10A0606EB460603FA06F10843E0604B
:100350000CE0206905EB4507072606FA07F18843FC
:1003600005EB450603FA06F108432061072A0FDA78
:10037000606B561E06EB86071F2606FA07F18843B8
:10038000561E06EB860605FA06F10843606322E076
:100390000D2A0FDA206BD61F06EB86071F2606FAFA
:1003A00007F18843D61F06EB860605FA06F10843D7
:1003B000206310E0E06AA2F10D0606EB86071F2617
:1003C00006FA07F18843A2F10D0606EB860605FA48
:1003D00006F10843E062F0BD816841F008018160E8
:1003E000704721B1826842F4A002826003E0826813
:1003F00022F4A00282607047816841F004018160AC
:100400007047000000B587B001214FF4077000F07D
:10041000C3FC4FF4004000F093FC3F20ADF81800FF
:1004200000208DF81B0006A92B4800F0BCFB2B48D0
:10043000FFF716FF0020019001208DF808008DF8CD
:1004400009004FF4602003900020049004208DF8F0
:10045000140001A92148FFF73BFF072301220021D7
:100460001E48FFF75DFF0723022201211B48FFF70B
:1004700057FF0723032202211848FFF751FF0723E4
:10048000042203211548FFF74BFF0723052204210F
:100490001248FFF745FF01211048FFF7CAFE01216E
:1004A0000E48FFF7D1FE0D48FFF796FF00BF0B483F
:1004B000FFF704FF0028FAD10848FFF79DFF00BFAF
:1004C0000648FFF7FBFE0028FAD101210348FFF799
:1004D00088FF07B000BD0000000801400024014073
:1004E00000BFFEE710B50021837A012202FA03F172
:1004F0003D4A126842F001023B4B1A603A4A1C32F4
:1005000012688A43384B1C331A60027BCAB9364AD8
:100510000C3212688A43344B0C331A604288C38809
:1005200042EA0343304A4032847A42F83430028847
:10053000838842EA03432C4A4032847A02EBC402A5
:100540005360027B012A19D1274A0C3212680A43F0
:10055000254B0C331A604288038842EA0343224A3F
:100560004032847A42F83430C288838842EA0343B6
:100570001D4A4032847A02EBC4025360C27A3AB90F
:10058000194A121D12688A43174B1B1D1A6006E098
:10059000154A121D12680A43134B1B1D1A6002896B
:1005A00032B9114A143212688A430F4B14331A605D
:1005B0000289012A06D10C4A143212680A430A4BF6
:1005C00014331A60427B012A06D1074A1C32126892
:1005D0000A43054B1C331A60034A126822F00102D9
:1005E000014B1A6010BD00000066004030B50246A5
:1005F00000200023146824F002041460146844F0FE
:100600000104146000E05B1C546804F001041CB990
:100610004FF6FF74A342F6D1546804F001040CB9FC
:1006200000206CE08C79012C04D1146844F0800423
:10063000146003E0146824F080041460CC79012C69
:1006400004D1146844F04004146003E0146824F0FA
:10065000400414600C7A012C04D1146844F0200486
:10066000146003E0146824F0200414604C7A012C18
:1006700004D1146844F01004146003E0146824F0FA
:10068000100414608C7A012C04D1146844F008041E
:10069000146003E0146824F008041460CC7A012C80
:1006A00004D1146844F00404146003E0146824F0D6
:1006B000040414608C78A407CD7844EA05640D79AD
:1006C00044EA05444D7944EA05540D886D1E2C43D7
:1006D000D461146824F001041460002300E05B1C62
:1006E000546804F001041CB14FF6FF74A342F6D124
:1006F000546804F001040CB1002000E0012030BD7A
:100700002DE9F04188B004460D4616461F46DDF837
:1007100038800121052000F03FFB0121480600F050
:100720002BFB4FF48050ADF81C0003208DF81E0009
:1007300018208DF81F0007A9234800F034FA4FF461
:100740000060ADF81C0048208DF81F0007A91E4866
:1007500000F029FA00208DF816008DF817008DF8AA
:10076000180001208DF8190000208DF81A008DF86E
:100770001B008DF812808DF813408DF814608DF8F1
:100780001550ADF8107004A91048FFF72FFF002096
:100790008DF80A008DF80B0001208DF80C00002068
:1007A000ADF80000ADF80200ADF80400ADF80600A9
:1007B000ADF8080001208DF80D006846FFF792FEA5
:1007C000002008B0BDE8F08100080140006400404E
:1007D00010B502460020936803F08063B3F1806F88
:1007E00000D110E0936803F00063B3F1006F01D112
:1007F000012008E0936803F08053B3F1805F01D1DA
:10080000022000E00420042874D002F5C07303EB3A
:1008100000131B6803F0010402F5C07303EB00131F
:100820001C600B7A7BB94B7A0C8843EA445302F57F
:10083000C07404EB00142468234302F5C07404EB75
:100840000014236010E00B7A4C6843EAC4034C7A2E
:10085000234302F5C07404EB00142468234302F51B
:10086000C07404EB001423608B7A03F00F038B72C7
:1008700002F5C07303EB00135B6823F00F0402F56D
:10088000C07303EB00135C6002F5C07303EB00134D
:100890005B688C7A234302F5C07404EB0014636038
:1008A0008B7B1C064B7B44EA03440B7B44EA03230B
:1008B000CC7A234302F5C07404EB0014A3608B7C54
:1008C0001C064B7C44EA03440B7C44EA0323CC7BA8
:1008D000234302F5C07404EB0014E36002F5C07317
:1008E00003EB00131B6843F0010402F5C07303EB34
:1008F00000131C6010BD000010B50246002321B19A
:10090000012907D002290FD109E090681D4C00EAA7
:1009100004030BE090681C4C00EA040306E09068B6
:100920001A4C00EA040301E0002300BF00BF184C8A
:10093000181BA34216D007DC83B16FF08060184407
:1009400070B1022818D111E0B0F5007F10D0114C21
:10095000204448B1B0F5003F0ED10BE002230DE07A
:1009600000230BE0002309E0002307E0012305E05A
:10097000012303E0012301E0002300BF00BFD8B240
:1009800010BD000003000004000300080000031075
:10099000000100080001FFF7F0B585B007460D46DD
:1009A000002440F20130009000208DF808008DF8FE
:1009B00009008DF80A5000BF05E0395D0DF10B000C
:1009C0000155601C84B2AC42F7DB69460C48FFF766
:1009D000FFFE0646002401E0601C84B23146084850
:1009E000FFF78AFF18B940F6FF708442F4DB40F647
:1009F000FF70844202DB012005B0F0BD0020FBE760
:100A00000064004021B1026842F00102026004E08B
:100A100002684FF6FE731A400260704701684FF695
:100A2000FE72114001600021016041608160C1607F
:100A30004B49884208D14A490839496841F00F01B9
:100A4000474A083A51608AE045491431884208D142
:100A500043490839496841F0F001414A083A516078
:100A60007DE03F492831884208D13D49083949682D
:100A700041F470613A4A083A516070E038493C31BB
:100A8000884208D136490839496841F47041344AEE
:100A9000083A516063E032495031884208D1304908
:100AA0000839496841F470212D4A083A516056E0EE
:100AB0002B496431884208D129490839496841F4F1
:100AC0007001274A083A516049E025497831884247
:100AD00008D123490839496841F07061204A083A31
:100AE00051603CE01F49884206D1011F096841F06E
:100AF0000F01021F116032E01A491431884208D1F7
:100B00001849091F096841F0F001164A121F1160C7
:100B100025E014492831884208D11249091F096883
:100B200041F470610F4A121F116018E00D493C3109
:100B3000884208D10B49091F096841F47041094AEC
:100B4000121F11600BE007495031884207D1054957
:100B5000091F096841F47021024A121F1160704791
:100B6000080002400804024010B50022026847F65F
:100B7000F0739A430C6A8B6823430C6923434C69D6
:100B800023438C692343CC6923434C6A23438C6AF7
:100B900023431A430260CB6843600B6883604B6851
:100BA000C36010BD70472DE9F041024600250026C4
:100BB000002000230024002791F803C00CF00F054B
:100BC00091F803C00CF0100CBCF1000F03D091F8A9
:100BD00002C04CEA050591F800C0BCF1000F31D00D
:100BE000146800202BE04FF0010C0CFA00F3B1F870
:100BF00000C00CEA03069E4220D183004FF00F0C88
:100C00000CFA03F7BC4305FA03FC4CEA040491F820
:100C100003C0BCF1280F06D14FF0010C0CFA00FC08
:100C2000C2F814C00AE091F803C0BCF1480F05D126
:100C30004FF0010C0CFA00FCC2F810C0401C082850
:100C4000D1D31460B1F800C0BCF1FF0F34DD54689B
:100C500000202EE000F1080C4FF0010808FA0CF318
:100C6000B1F800C00CEA03069E4221D183004FF088
:100C70000F0C0CFA03F7BC4305FA03FC4CEA04041E
:100C800091F803C0BCF1280F05D100F1080C08FA57
:100C90000CF8C2F8148091F803C0BCF1480F07D1DA
:100CA00000F1080C4FF0010808FA0CF8C2F81080A7
:100CB000401C0828CED35460BDE8F08100BFFEE799
:100CC000F0B58BB007460D4616461C460121084676
:100CD00000F042F83846FFF7A1FE0F490C7000956E
:100CE000019600200290039404908020059040001B
:100CF00006908000079020200890000209900020B4
:100D00000A9069463846FFF72FFF01210348FFF795
:100D100079FE0BB0F0BD0000180000200800024072
:100D200000BFFEE77047000002490143024A11601C
:100D3000704700000000FA050CED00E0704700006D
:100D400001460020034A506820F4404008435060A8
:100D5000704700000010024029B1064A5269024360
:100D6000044B5A6104E0034A52698243014B5A61C1
:100D7000704700000010024029B1064AD2690243C0
:100D8000044BDA6104E0034AD2698243014BDA6121
:100D9000704700000010024029B1064A92690243E0
:100DA000044B9A6104E0034A92698243014B9A61C1
:100DB000704700000010024029B1064AD268024381
:100DC000044BDA6004E0034AD2688243014BDA60E4
:100DD0007047000000100240704710B500F002F8A4
:100DE00010BD00000CB50020019000903348006851
:100DF00040F480303149086000BF3048006800F49A
:100E0000003000900198401C0190009818B901989A
:100E1000B0F5A06FF1D12948006800F4003010B19E
:100E20000120009001E0002000900098012843D1AB
:100E30002348006840F01000214908600846006817
:100E400020F0030008600846006840F002000860D7
:100E50001A48406819494860084640684860084692
:100E6000406840F4806048600846406820F47C1088
:100E700048600846406840F4E8104860084600684A
:100E800040F08070086000BF0C48006800F00070FF
:100E90000028F9D00948406820F00300074948605D
:100EA0000846406840F00200486000BF03484068C0
:100EB00000F00C000828F9D10CBD00000010024021
:100EC00000200240042808D14FF0E021096941F0D8
:100ED00004014FF0E022116107E04FF0E0210969C1
:100EE00021F004014FF0E0221161704770470000CB
:100EF00010B51348006840F0010011490860084629
:100F00004068104908400E494860084600680E498C
:100F100008400B4908600846006820F480200860FB
:100F20000846406820F4FE0048604FF41F008860C7
:100F3000FFF753FF4FF000600449086010BD000048
:100F4000001002400000FFF8FFFFF6FE08ED00E091
:100F500010B50121880700F01CF818B108210448D9
:100F6000FFF71AFD0121880700F010F810BD0000FE
:100F70001900002010B50121034800F00AF80121F2
:100F8000014800F003F810BD00080040CA43028287
:100F9000704730B50246002000230024158A05EA78
:100FA0000103958905EA010413B10CB1012000E0A9
:100FB000002030BD10B540F225511D4800F03EF82C
:100FC00010B31B4800F064F8C4B21A48008800F45B
:100FD0000040C8B91748008800F4804060B10A2C6E
:100FE00003D000201349088020E01248008840F414
:100FF00000401049088019E00D2C06D10D480088EA
:1010000040F480400B49088010E00A480088C0F393
:101010000D0009490C5407480088401C0549088008
:1010200008460088C72801DD0020088010BD0000A8
:10103000003801402C0000201C01002070B5024641
:10104000002400230025002040F66A16B14200D19A
:1010500000BFC1F3421501F01F03012606FA03F396
:10106000012D02D19689334006E0022D02D1168A65
:10107000334001E0968A33400C12012606FA04F44C
:101080001688344013B10CB1012000E0002070BD7F
:1010900001468888C0F30800704700BFFEE701469C
:1010A00000BF704710B56FF00400FFF70BFF0A4850
:1010B00000680A49B0FBF1F0094908700846007859
:1010C00000EB4001C1EBC0104FF6FF7101EAC00018
:1010D0000449088010BD00000400002000127A00BE
:1010E00022000020240000200146114A12884A43B1
:1010F0004FF0E0235A6100229A611A46126942F0C9
:1011000001021A6100BF4FF0E022106900F00102F5
:101110001AB100F48032002AF5D04FF0E0221269B3
:1011200022F001024FF0E0231A6100229A61704719
:10113000240000202DE9F0410026002400BF38E003
:10114000002507E01D4800EBC50030F814000644F8
:10115000681CC5B2142DF5DB142096FBF0F018497D
:1011600021F81400084630F81400164931F814101C
:10117000401A154941F82400084650F82400002878
:1011800002DC002041F824000F4951F8240000F04F
:10119000AFFC80460D4850F82410404600F0C0FCDB
:1011A000074600F085FC064921F814000026601C63
:1011B000C4B2042CC4DBBDE8F08100003000002084
:1011C000D0000020DA00002008010020F4000020F8
:1011D0002DE9FC474FF0000A002400BF1FE04FF04C
:1011E000000909E03C4800EBC90030F814008244D3
:1011F00009F1010000F0FF09B9F1140FF2DB14202E
:101200009AFBF0F0354921F81400084630F8140034
:10121000334921F814004FF0000A601CC4B2042CBA
:10122000DDDB2F49088800F0E7FA00222D4BCDE9DD
:10123000000100F048FB07463A460B4600202A49C9
:1012400000F082F9054600F0A5F828490860244915
:10125000488800F0D1FA07460022224B00F033FB09
:1012600002460B46CDE900010020214900F06CF94F
:10127000054600F08FF81D4948601949888800F03C
:10128000BBFA0022174BCDE9000100F01CFB05461C
:101290002A460B460020174900F056F9074600F091
:1012A00079F8124988600E49C88800F0A5FA074607
:1012B00000220C4B00F007FB05462A460B46002097
:1012C0000D4900F041F9CDE9000100F063F807494C
:1012D000C860BDE8FC87000030000020D00000207E
:1012E000DA0000200000B040802BC140F400002054
:1012F0000091BF4000FCC0408046C04008B500BF20
:101300000024FFF7CFFE4FF4A060FFF70DFDFFF7BD
:1013100079F85023194A1A491A48FFF7D1FC0120DD
:1013200003230822014600900020FFF7E9F94FF45B
:101330007A70FFF7D9FEFFF74BFF1DE0FFF7FAFECB
:1013400000240EE0104830F81400C0F307216000BC
:10135000401C0E4A11540C4810F8140002F81400F6
:10136000641C042CEEDB08210848FFF715FB084934
:1013700008800220FFF7B8FEE0E700003000002000
:101380004C24014008000240D00000201900002039
:101390000000002021F00042A2F16052B2F5801F4F
:1013A00001F0004328BFD2F17F6C0BD95FEA001C2B
:1013B00043EAC20242EB507018BF704728BF20F0CA
:1013C00001007047B2F5801FBCBF184670474FEA56
:1013D000410C1CF5001F02D2084600F068BC70B535
:1013E00000F01DFA00000089FFF7F6BF4FF0004043
:1013F000A0F580007047000010B591EA030F48BFC8
:1014000083F0004300F17282841A71EB030C05D261
:10141000121943EB0C03001B61EB0C01DFF824E114
:101420004FEA1154A4EB135C1EEA430F18BF9EEA67
:10143000445F73D023EA0E03DCF1200E21EA04514D
:1014400043F4801332D322FA0CFE10EB0E0023FA81
:101450000CFE41EB0E01CCF1200E03FA0EFE10EB58
:101460000E0051F10001B1F5801FCCF1200E32D2F7
:1014700001EB045112FA0EF2BDE8104058BF70475C
:10148000401C38BF5FEA420218BF7047002814BFF3
:1014900020F0010041F100014FEA410313F5001F64
:1014A00038BF7047A1F1C04100F007BA012A43EBF1
:1014B0000302ACF1200CDCF11F0E32BF4FF0000E26
:1014C00023FA0CF310EB030041EB0451B4EB115F72
:1014D000D0D0A1EB045101F5801149085FEA30003A
:1014E00001EB04510ED350F1000038BF12FA0EFE8A
:1014F00008D1BDE81040C9E7401C38BF5FEA42028E
:10150000CAD1C3E7BDE810404FEA410313F5001FFD
:1015100038BF7047A1F1C04100F0CFB99EEA445FE7
:1015200008D011EA5E0FBDE8104004BF01F0004191
:1015300000207047BDE8104070B500F070F900BFA2
:1015400064FBBE3E0000E0FF2DE9C04130B4DFF88F
:10155000A0C23CEA111418BF3CEA131400F0EC805E
:1015600081EA03051CEA111444EAD57418BF1CEA89
:10157000131500F0C780A4EB05044FF0004545EAC1
:10158000C12145EAC32341EA505143EA525304F1D1
:101590007F74994204F500344FEAC0204FEAC2221A
:1015A00008BF904200F09C804FEA13650FF240168E
:1015B000765D4FEA134506FB05F7C7F1807706FB1A
:1015C00007F74FEAD737A7FB03687642C8F580389C
:1015D000A7FB06CE38BFA8F1010807FB08E64FF0CD
:1015E000000EA6FB028CE6FB03CEDCF1000CCEF174
:1015F000004E38BFAEF1010EA6FB0C584FF00007AD
:101600004FF00005E6FB0E87A1FB08C6A0FB07CE46
:1016100016EB0E0645F10005E1FB076515F1E04EFE
:101620007EBFA4F580345FEA46066D4116F180075F
:1016300045F100054FEA17274FEA066647EA0567B6
:10164000A6F1DE46B6F1805F4FEA15251FD9384670
:1016500024F0010C05EBC471BCF1FE6F01EB0C1121
:1016600002D8F0BCBDE8008124425CBF01F5801EB9
:101670009EEAC47F02D4F0BCBDE80081244238D485
:10168000F0BCA1F1C041BDE8004100F016B94FEA3D
:10169000D22242EA43524FEAD323A7FB02864FEA03
:1016A000D02040EA415007FB03661EEA0E0F4FEAC6
:1016B000D12105FB026658BFA6EB0056B6EB0056DB
:1016C0004FEA520E4EEAC37E18EB0E0E56EB530E47
:1016D000BDD518EB02085E417F1C55F10005B6E749
:1016E0004FF480154FF000074FF000064FF0000850
:1016F000ADE7F0BC4FF0000001F1C04101F0004146
:10170000BDE8008111EA0C1F0CEA131500D00CE0B3
:1017100013EA0C1F00F025804FF00000F0BC81EAB6
:10172000030101F00041BDE80081F0BCBDE80041CB
:1017300081EA030100F0C1B8F0BCBDE8004170B51A
:1017400000F06DF8097EFC3E00F007B881EA030165
:101750004FF0000001F00041704781EA030100F002
:10176000ACB8F0BCBDE800414FF000002149704723
:10177000FFFDFBF9F7F5F4F2F0EEEDEBE9E8E6E456
:10178000E3E1E0DEDDDBDAD8D7D5D4D3D1D0CFCDDD
:10179000CCCBCAC8C7C6C5C4C2C1C0BFBEBDBCBB16
:1017A000BAB9B8B7B6B5B4B3B2B1B0AFAEADACAB11
:1017B000AAA9A8A8A7A6A5A4A3A3A2A1A09F9F9EEB
:1017C0009D9C9C9B9A99999897979695959493939D
:1017D000929191908F8F8E8E8D8C8C8B8B8A898934
:1017E00088888787868585848483838282818180B7
:1017F0000000FF070000F87FB0FA80F310FA03F151
:101800000AD0C3F11D0303F580634FEA41504FEA4C
:10181000035202EBD12170474FF0000070470EF1E8
:10182000020E2EF0030E5EF8046B364205D4012A38
:1018300043EB030515F5001F12D8012841EB010CFD
:101840001CF5001F0CD80ED14FEAD17C15F5001FF6
:101850000CEB4C0C0CF1020C08BF4CEBD37C04E0FD
:101860004FF0080C01E04FEAD37C0CEB4C0526FA54
:1018700005F606F00706B6F1040C06D20EEB860C50
:10188000BDE870404CF0010C6047DFE80CF0090B3C
:1018900002024FF000414FF00000A1F5002170BDA1
:1018A00019461046012851EB010418BFD4F5001465
:1018B00084BF002001F0004170BD0808A0F50011B0
:1018C0004FEA3101704791EA030F10B581F00041F2
:1018D0003FF59AAD83F0004300F008B810B591EAE7
:1018E000030F48BF83F000433FF58EAD841A71EBC0
:1018F000030C07D212198CF0004C43EB0C03001BB5
:1019000061EB0C01DFF8A4E14FEA1154A4EB135C86
:101910001EEA430F18BF9EEA445F00F0B08023EA3E
:101920006E03524221EA0451C3EB6E0338BF5B1EC3
:10193000DCF1200E25D322FA0CFE10EB0E0043FA48
:101940000CFE41EB0E01CCF1200E03FA0EFE10EB63
:101950000E0051F10001CCF1200E29D412FA0EF242
:1019600001EB0451BDE8104058BF7047401C1CBF3C
:10197000B2F1004F704700280CBF491C20F0010055
:10198000704712EB020E43EB030218BF4FF0010E3B
:101990004EEA4202ACF1200CDCF11E0E54D943FA9F
:1019A0000CFE10EB0E0051F1FF31CCF11E0ED5D51F
:1019B0000EF1010E12FA0EFE404141EB010101EB66
:1019C000445C5FEA5C5C10D910EBDE7001EB045103
:1019D00038BFBEF1004FBDE8104018BF7047002867
:1019E0000CBF491C20F00100704730D24FEAD42CC4
:1019F00011F5001124F400641BD0B1FA81F20B3A06
:101A0000A41AA41ED2F12003914030FA03F3194323
:101A1000904001EBCC71002C01EB0451BDE810406B
:101A2000A8BF704701F1C0414FF0000001F0004134
:101A30007047B0FA80F310FA03F100D110BDE41A38
:101A4000173C4805C90AE4E701EB045110BD4910F1
:101A500001EB0451BDE810404FEA300002E04FF0C6
:101A6000000170474A0008BF0042F8D0B2F5001FDD
:101A700028BF704701F000414FF0000070479EEA18
:101A8000445F07D011EA5E0FBDE8104004BF00219B
:101A900000207047BDE8104070B5FFF7C0FE00BFE2
:101AA00040DFF63E83F00041104670470000E0FF43
:101AB000C10DD1F19E0206DB4FEA002343F0004343
:101AC00023FA02F07047004207D54FEA4001B1F116
:101AD000FE4F02D24FF00000704710B500F0A1F8A1
:101AE00049922480002070476FEA20007047000070
:101AF00010F0004148BF4042B0FA80F310FA03F200
:101B0000C3F19D030BD051EAC35101EB12205306E0
:101B100038BF704700F1010008BF20F00100704796
:101B20004FF47F0C1CEAD0121EBF1CEAD11392EABC
:101B30000C0F93EA0C0F00F0478090EA010F48BFAA
:101B400042F480724FF0004C4CEA00204CEA012134
:101B500002EB0302A0FB0113A2F50002002918BF4B
:101B600043F001035B0028BF4FEA330342EB2242FC
:101B70005FEA132C4CEBC2502EBFBCEB436FB2F5A7
:101B80007C0F70474FEA036CBCF1004F08BF20F098
:101B90000100B2F57C0F38BF70470BD582F0FF0211
:101BA00012F5803FC8BF704700F1C040D8BF00F0B9
:101BB0000040704700F5000C5FEA4C0C48BF7047CE
:101BC000B0F1C04000F073B890EA010F0CEAD113F5
:101BD00048BF42F48072624538BF634504D280EA50
:101BE000010000F00040704710B500F01AF800BF87
:101BF0008900013E00F007B800F009B85FEA410C27
:101C00005FEA1C6C08D080EA010000F050B85FEA7F
:101C1000400C5FEA1C6CF6D14FF00040A0F580004C
:101C200070470EF1020E2EF0030E5EF8044B2442B4
:101C300004D44FEA4102B2F17F4F11D84FEA40037A
:101C4000B3F17F4F0CD80ED14FEAD07CB2F17F4F69
:101C50000CEB4C0C0CF1020C08BF4CEBD17C04E0FB
:101C60004FF0080C01E04FEAD17C0CEB4C0324FA56
:101C700003F404F00704B4F1040C06D20EEB840C58
:101C8000BDE810404CF0010C6047DFE80CF007089D
:101C900002024FF00040A0F5800010BD084642004F
:101CA00018BFD2F1807288BF00F0004010BDFF2144
:101CB00041EAD050C0057047D81C00080000002041
:101CC0003000000028010008081D00083000002036
:101CD00018080000440100080000000000A24A04A7
:101CE00000000000000000000102030406070809CC
:101CF00000000000000000000000000000000000E4
:081D00000000000000000000DB
:04000005080000ED02
:00000001FF
